:1003FB00D3EF9400EE9400400F7DFFDDFE7DE8DD32
:08040B00FEEF1F70EB1E80E8FC
:0104130022C6
:10041400011BFF011CFF011DFF011EFF0A1FC0F984
:08042400A4B0999282F88090C7
:10035E008D178B18C290741F2FF8E6551BF5A07FD2
:10036E000A7E001203FBD290C291741F2517F8E685
:10037E00551CF5A07F0A7E001203FBD291C2927427
:10038E001F2518F8E6551DF5A07F0A7E001203FB07
:10039E00D292C293741F2519F8E6551EF5A07F0A56
:1003AE007E001203FBD293C294741F251AF8E655F1
:0D03BE001EF5A07F0A7E001203FBD29422E0
:1003CB00E4F516F516C290C291C292C293C2947410
:1003DB001F2516F8E6F5A07FF47E011203FBD290E1
:0F03EB00D291D292D2930516E516D3940940D63B
:0103FA0022E0
:10042D00759850438920758BFD758DFDD299D28EAF
:01043D00229C
:08044A008F993099FDC299223F
:080452003098FDC298AF992219
:0C043E0030303030303030303030303072
:10020E0078087C007D007BFF7A04793E7E007F06B5
:10021E001200D3780E7C007D007BFF7A0479447E39
:10022E00007F061200D3E4F51412042D30987412D8
:10023E0004528F15E515C394304012E515D3943949
:10024E00500B740E2514F8A615051480DFE4F51472
:10025E00E51524BA602824F36035241170347E002D
:10026E007F057D307B007A0079081201E278087CE8
:10027E00007D007B007A00790E1201C580147E008D
:10028E007F057D307B007A0079081201E28003122F
:10029E0003CB7E007F057D307B007A00790E120144
:1002AE00E28089E50C24D0FFE50B24D0FDE50A247D
:1002BE00D0FBE50924D0F519E50824D0F51A120370
:0402CE005E02023A90
:030000000202D227
:0C02D200787FE4F6D8FD7581280203193E
:10000300E709F608DFFA8046E709F208DFFA803EDF
:1000130088828C83E709F0A3DFFA8032E309F608CC
:10002300DFFA8078E309F208DFFA807088828C8334
:10003300E309F0A3DFFA806489828A83E0A3F608E8
:10004300DFFA805889828A83E0A3F208DFFA804CC2
:1000530080D280FA80C680D4806980F28033801099
:1000630080A680EA809A80A880DA80E280CA803302
:1000730089828A83ECFAE493A3C8C582C8CCC5837A
:10008300CCF0A3C8C582C8CCC583CCDFE9DEE7804A
:100093000D89828A83E493A3F608DFF9ECFAA9F0C9
:1000A300EDFB2289828A83ECFAE0A3C8C582C8CC1F
:1000B300C583CCF0A3C8C582C8CCC583CCDFEADE38
:1000C300E880DB89828A83E493A3F208DFF980CC9A
:1000D30088F0EF60010E4E60C388F0ED2402B40493
:1000E3000050B9F582EB2402B4040050AF2323453A
:0600F3008223900053730C
:1000F900E709F60870FA8046E709F20870FA803EC7
:1001090088828C83E709F0A370FA807EE309F608F8
:1001190070FA8076E309F20870FA806E88828C831F
:10012900E309F0A370FA806289828A83E0A3F60862
:1001390070FA805689828A83E0A3F20870FA804AAD
:1001490080D280FA80C680D4806580F280318010A8
:1001590080A680EA809A80A880DA80E280CA80310D
:1001690089828A83ECFAE493A3C8C582C8CCC58383
:10017900CCF0A3C8C582C8CCC583CC70E9800D89F1
:10018900828A83E493A3F60870F9ECFAA9F0EDFBEF
:100199002289828A83ECFAE0A3C8C582C8CCC583C8
:1001A900CCF0A3C8C582C8CCC583CC70EA80DD89F0
:1001B900828A83E493A3F20870F980CE88F0ED2453
:1001C90002B4040050C4F582EB2402B4040050BA0E
:0901D900232345822390014973A0
:1001E200EF4E6012EF60010EEDBB010B89828A8334
:1001F200F0A3DFFCDEFA2289F05007F709DFFCA941
:0C020200F022BBFEFCF309DFFCA9F02297
:1002DE0002020EE493A3F8E493A34003F68001F226
:1002EE0008DFF48029E493A3F85407240CC8C33321
:1002FE00C4540F4420C8834004F456800146F6DFF0
:10030E00E4800B0102040810204080900414E47E67
:10031E00019360BCA3FF543F30E509541FFEE493E4
:10032E00A360010ECF54C025E060A840B8E493A3AB
:10033E00FAE493A3F8E493A3C8C582C8CAC583CAD6
:10034E00F0A3C8C582C8CAC583CADFE9DEE780BE8E
:01042C0000CF
:00000001FF
