:020000006F2867
:10000600553023009600AA30960095140000000093
:020016000800E0
:1000180012001E00F003031D0C28F103031D0C2819
:020028000800CE
:10002A000B082000C9008B1323001515151395160C
:10003A002000450823009100200046082300920072
:10004A002000CA011F304A020318482847088400C2
:10005A004808850000082300930001310008940035
:10006A0002302000C7070030C83D032001301107C5
:10007A00F0000030123DF100700891007108920002
:10008A002000CA0A27282300951220004708840066
:10009A0048088500000823009300013100089400F5
:1000AA00032015112000C91B5C288B135D288B17B0
:0200BA0008003C
:1000BC0020004508230091002000460823009200F0
:1000CC0015131514000000001308F0001408F100BB
:0200DC0008001A
:1000DE002C2123008C018D018E012200911393138C
:1000EE0020008D0121008D0120008E0121008E0146
:1000FE000630FB001330FC00AD30FD00FD0B8528F3
:10010E00FC0B8528FB0B85280000000030302000FA
:10011E00C3000430C400C001043040020318C628D6
:10012E000230FB000430FC00BA30FD00FD0B9D28B0
:10013E00FC0B9D28FB0B9D2800004008F000F101F0
:10014E00F035F10DF035F10D70084307C50071085B
:10015E00443DC6000330F2004008F000F101720881
:10016E000319BD28F035F10DFF3EB728203070077A
:10017E00C7000030713DC8001520C00A9328063014
:10018E00FB001330FC00AD30FD00FD0BCC28FC0B4A
:10019E00CC28FB0BCC28000000003030C30004300C
:1001AE00C400C00110304002031806294308C500E0
:1001BE004408C6005E2070082000C1007108C2000D
:1001CE00C30A0319C40A0630FD00FD0BEC2800001B
:1001DE0041088D004208F000F10170088E000630D3
:1001EE00FB001330FC00AD30FD00FD0BFC28FC0BBA
:1001FE00FC28FB0BFC2800000000C00AD9280629A9
:100258000A308400813085002130F0000130F1003F
:0C02680020308600003087000C200800C9
:10021400AA343F34AB343F34AC343F34AD343F3490
:10022400AE343F34AF343F34B0343F34B1343F3470
:10023400B2343F34B3343F34B4343F34B5343F3450
:10024400B6343F34B7343F34B8343F34B9343F3430
:02025400003474
:020000040001F9
:04000E00E23E031EAD
:00000001FF
