:020000002229B3
:1000080070082000A1007108A0008031911D4C28C3
:10001800911124001408F100F136F136711C1D28E5
:100028002000260824009100151611082000A300BE
:100038005028003024001405F0000319272811085F
:100048002000A30050280530F00024001408F10017
:10005800700803193228F136FF3E2D28711C4C28F0
:100068002430860000308700200022088607031805
:10007800870A2400110881002000A20A2208013CF6
:1000880003184728A201240011082000A3005028C3
:10009800240011082000A3002108F0002008F10026
:0200A80009004D
:1000AA0021008E162C00930192011113911308005E
:1000BA0021008E152C009601950114139413080043
:1000CA0020001C1521000C112C0019179917080083
:1000DA0020001C1521008E122C00131793170800FC
:1000EA0020001C1521008E112C00161796170800E7
:1000FA0021000C152C009901980117139713080079
:10010A0020002708F0002808F100F136F00CF1363B
:10011A00F00C70082C0092000630F100200027082D
:10012A00F000710803199C28F035FF3E97287008E3
:06013A002C0091040800F6
:1001400020002708F0002808F100F136F00CF13605
:10015000F00C70082C0095000630F10020002708F4
:10016000F00071080319B728F035FF3EB228700877
:060170002C0094040800BD
:1001760020002708F0002808F100F136F00CF136CF
:10018600F00C70082C0098000630F10020002708BB
:10019600F00071080319D228F035FF3ECD2870080B
:0601A6002C009704080084
:1001AC0012001E00F003031DD628F103031DD628F0
:0201BC00080039
:1001BE0020007008F100F0010830FC007108F40C0A
:1001CE000318ED28FC0BE628F10100340310F22889
:1001DE00F40C0318F107F10CF00CFC0BEF280800DF
:1001EE0020001C149C14F9309B00552020001C1478
:1001FE009C14F9309B005D2020001C149C14F930D7
:0C020E009B007D206D20752065200800FD
:10021A0021009E018C0103308E00D230240092000E
:10022A0036309500C0308B008B170B1721009115C3
:0A023A0011142000111091110800AA
:100244002000A2010D21F72020002408013A031DFB
:1002540036292508F0006430F400DF207008A70078
:100264007108A8008520552920002408023A031D9E
:1002740046292508F0006430F400DF207008A70048
:100284007108A800A020552920002408033A031D62
:1002940055292508F0006430F400DF207008A70019
:0A02A4007108A800BB202629562986
:020000040001F9
:04000E00E00E030EEF
:00000001FF
