:020000004A288C
:10000800FF00030E8301A5000A08A6008A018C1DC3
:1000180028288C118316141D18288312240893008D
:1000280014161308A2002B28831614181F288312ED
:100038001308A2002B288316941E2828831213085D
:10004800A3001308A2002B2883121308A200260875
:0C0058008A00250E8300FF0E7F0E0900B9
:10006400831603139F0185018601FF308700D23078
:10007400930036308312940083168C15C0308B00A5
:100084008B170B178C150C1483120C108C11080091
:100094003220230886000708A4000330FB008A30BE
:1000A400FC005530FD00FD0B5528FC0B5528FB0BBF
:0A00B4005528000000004B285E28CC
:02400E004A2F37
:00000001FF
