:02000000902846
:10000600831207140710D1012508510203180F287F
:0A00160087148710D10A072808009C
:100020008312250883169B009C131C141A08D00009
:020030000800C6
:1000320083169C1C1E280000192823089B002408F4
:100042009A009C131C150B08D0008B1355309D0091
:10005200AA309D009C14D01B30288B1331288B179B
:040062001C11080065
:1000660083169101FC30870083120710A501032037
:100076000630DB001330DC00AD30DD00DD0B41283F
:10008600DC0B4128DB0B4128000000000130A300F7
:100096000A302302031861282308A5000320023032
:1000A600DB000430DC00BA30DD00DD0B5828DC0B49
:1000B6005828DB0B58280000A30A4B28A50103206B
:1000C6000630DB001330DC00AD30DD00DD0B6928C7
:1000D600DC0B6928DB0B692800000000A501102055
:0C00E6005008A0005008A50003200800EE
:1000F20083122308013A031D8D288230DC00DD3093
:10010200DD00DD0B8228DC0B8228000000000130BC
:0E011200D0000030D1008F28D001D1010800AC
:1001200033208312003007190130A30079205008D2
:10013000510403199C28A001003087190130A30045
:100140007920500851040319B7282008003C0318EF
:10015000AE28053020020318AE28A00A2008003A75
:10016000031DB4280230A000071DB728A0010030ED
:10017000071A0130A3007920500851040319CE2832
:100180002008013C0318C528A0032008003A031DDD
:10019000CB280130A000071DCE28A0012008A50013
:1001A0000320A3012008A40019200330DB008A30BB
:1001B000DC005530DD00DD0BDB28DC0BDB28DB0B46
:0A01C000DB28000000009128E4286D
:02400E00F4318B
:00000001FF
