:020000009D2D34
:1000060083120313F101F201831656087202031DCF
:100016000E285508710203181428F10A0319F20A6A
:04002600072808009F
:10002A008312031307108710071107138713080099
:10003A00403083160313540203183C2815208316F4
:10004A005408C3003F305405F00040307004831256
:10005A008500071387170710871007150A308316BC
:10006A00D5000030D60003208312071155288316C5
:10007A005408C30040305402F0003F30F0054030CD
:10008A007004831285008713071707108710071556
:10009A000A308316D5000030D600032083120711D8
:0200AA0008004C
:0E00AC008316031341088A00400882000800F2
:0400BA00000008003A
:1000BE00073084000008000883120313F00070124A
:0600CE007008800008002C
:1000D400073084000008000883120313F000F011B5
:0600E40070088000080016
:1000EA00013083160313D1000030D2008030CF00D4
:1000FA00D0014F0850040319AB285D205D205D2014
:10010A005D206A20831687115D205D204F084E0509
:10011A00F00000305005F1007008710403199728A7
:10012A0007169A285F20831607125D205D2087151F
:10013A003E1083128719A62883163E1CA528A628D6
:10014A009E288316D00CCF0CD0137E28D101D20161
:10015A005D205D206A20831687115D205D200716C9
:10016A005D205D205D205D2087153E108312871972
:10017A00C32883163E1CC228C328BB288316D10174
:10018A00D2015D205D208312071ECD2883165114EB
:10019A005D205D205D205D205D205D205D205D206D
:1001AA005D205D205D205D205D205D205D205D205D
:1001BA006A20831687115F20831607125108F00000
:0201CA0008002B
:1001CC0083160313D001D1018030D2000030D3004C
:1001DC0052085304031912295D205D2007165D2077
:1001EC005D2087153E1083128719012983163E1C4A
:1001FC0000290129F9288312071E092983165208A0
:10020C00D0045308D1045D205D206A208316871129
:10021C00D30CD20CD313EE2807165D205D204E08AC
:10022C004F0403191C295F20831607125D205D20E3
:10023C0087153E1083128719282983163E1C2729FF
:10024C00282920295D205D206A20831687115D20D6
:0E025C005D205F20831607125008F000080096
:10026A0083120313FB01FA01F9018030F800F10C43
:10027A00F00C031C49297408F90775080318750F4F
:10028A00FA070318FB0A0310F01F51297408FA072A
:10029A0075080318750FFB07FB0CFA0CF90CF80C20
:1002AA00031C3C297B08F3007A08F2007908F10064
:0602BA007808F0000800C6
:1002C0008316031307165D205D2087155D205D20D2
:1002D0005F20831607125D205D206A208316871138
:0202E000080014
:1002E2005F20831607125D205D2087153E10831262
:1002F2008719802983163E1C7F2980297829831635
:100302005D205D205D205D205D205D205D205D2003
:0803120007165D205D200800C4
:10031A00831203137008F100F0010830FC00710821
:10032A00F40C03189C29FC0B9529F10100340310E5
:10033A00A129F40C0318F107F10CF00CFC0B9E290F
:02034A000800A9
:10034C001520B83083164E048312850007108710D1
:10035C000A308316D5000030D6000320831207150F
:10036C000A308316D5000030D60003208312071103
:02037C00080077
:10037E0083160313D201D30151085302031DC92959
:10038E005008520203181D2A403043020318F02968
:10039E0052084E07F0004F080318013E5307F100B4
:1003AE007008C0007108C10056208A110A1283120B
:1003BE008500071387170714871007150A30831651
:1003CE00D5000030D6000320831207118316C30A0E
:1003DE00142A4308D4001D20831652084E07F0003D
:1003EE004F080318013E5307F1007008C000710852
:1003FE00C10056208A110A1283128500871307172F
:10040E000714871007150A308316D5000030D60062
:10041E000320831207118316C30A43087F3C031877
:0E042E00192A1D2AD20A0319D30AC32908006D
:10043C0083120313F8010830FC00700DF80D7408DA
:10044C00F80203182B2AF8070310F00DFC0B232AD3
:02045C00080096
:10045E00831603134808D4001D2083164908CE00C6
:10046E00A6218316CC014C084A07F0004B0803184E
:10047E00013EF1007008C0007108C10056208A11BB
:10048E000A12F1007108003A0319762A4C084A073D
:10049E00F0004B080318013EF1007008C00071080F
:1004AE00C10056208A110A12F0002030F002F1012C
:1004BE00031CF1030530F4000030F50035217008FF
:1004CE00A83E8316CE0005300318013E7107CF00FB
:1004DE000530D0000030D100BF21CC0A3A2A0800E6
:1004EE0083160313CA0103304A020318852A4A08E9
:1004FE004907840020308000CA0A7A2A4A08490730
:10050E0084008001CA034A084907CB000A30F40070
:10051E004808F0001E227808F0003030F0078316ED
:10052E004B088400700880000A30F4004808F00080
:10053E001E2270088316C8007008003A031DA82AF0
:08054E00AA2ACA038A2A080048
:10055600831603134808D4001D2083164908CE00CD
:10056600A6218316CB014B084A0784000008003AEF
:100576000319E52A4B084A0784000008CC00CD0180
:100586000030CD004C08F0004D08F100F00DF10DE3
:100596007010F00DF10D7010F00DF10D7010700867
:1005A600CC007108CD007008003ECE00083003185C
:1005B600013E7107CF000830D0000030D100BF21C6
:0605C600CB0AB62A080072
:1005CC00831603134808D4001D2083164908CE0057
:1005DC00A6218316CB014B084A0784000008003A79
:1005EC000319162B4B084A07840020300002F00038
:1005FC00F101031CF1030530F4000030F500352146
:10060C007008A83E8316CE0005300318013E710712
:10061C00CF000530D0000030D100BF21CB0AF12A29
:02062C000800C4
:10062E0083160313C801083048020318372B4808F5
:10063E00CE00A6218316D4011D208316C901803059
:10064E0049020318352BE730CE000730CF000130BA
:10065E00D0000030D100BF21C90A262BC80A1A2BA0
:02066E00080082
:1006700083160313D4011D208316CE01A6218316F1
:10068000CA0108304A020318672B4A08CE00A62187
:100690008316D4011D200730F20083164A08F000AB
:1006A000F10172080319592BF00DF10D7010FF3E86
:1006B000522B70084807CE0049080318013E710705
:1006C000CF008030D000D101BF21CA0A412B0800E1
:1006D00015203F3085000713871387100710071573
:1006E00064308316D5000030D60003208312071132
:0206F000080000
:1006F2001520C03083164804831285000713871320
:100702000710871007150A308316D5000030D6006F
:08071200032083120711080007
:10071A00831603134808F000F00CF013F00CF013E2
:10072A00F00CF013F00CF0130A30F4008D210F30A6
:0C073A0083164805F1007108F007080064
:1007460083160313CB0160210730F2004908F0003D
:100756004A08F10072080319B52BF10CF00CF113DD
:10076600FF3EAE2B0E30F00570084804CE00752013
:10077600FF304905CE007520602101304804CE00C7
:100786007520CE01CF01E6207008CB0071214B0801
:04079600F000080067
:10079A00831603133F08C2003908B8003708B600A9
:1007AA003D08BC003B08BA003508B400D030C80088
:1007BA00C901CA01A3237008C8008D237008BF00AD
:1007CA000D30FC00FB30FD00FD0BE92BFC0BE92B87
:1007DA0000000000D030C8000130C9000030CA0053
:1007EA00A3237008C8008D237008B9000D30FC00DF
:1007FA00FB30FD00FD0BFF2BFC0BFF2B0000000064
:10080A00D030C8000230C9000030CA00A3237008E3
:10081A00C8008D237008B7000D30FC00FB30FD00C6
:10082A00FD0B152CFC0B152C00000000D030C80065
:10083A000430C9000030CA00A3237008C8008D2301
:10084A007008BD000D30FC00FB30FD00FD0B2B2CA9
:10085A00FC0B2B2C00000000D030C8000530C9006A
:10086A000030CA00A3237008C8008D237008BB009B
:10087A000D30FC00FB30FD00FD0B412CFC0B412C24
:10088A0000000000D030C8000630C9000030CA009D
:10089A00A3237008C8008D237008B5000D30FC0032
:1008AA00FB30FD00FD0B572CFC0B572C0000000001
:1008BA003C083D060319782C3D08C800C430C9001D
:1008CA0077221E30C8000130C900C530CA00E622AE
:1008DA000A303D020318782C1E30C8000130C900C6
:1008EA002030CA00E6223A083B060319932C3B083B
:1008FA00C800C430C90077222F30C8000130C900AF
:10090A00C530CA00E6220A303B020318932C2F3066
:10091A00C8000130C9002230CA00E6223408350670
:10092A000319A32C3508C800C430C90077224B30FC
:10093A00C8000130C900C530CA00E62236083706A9
:10094A000319BE2C3708C800C430C90077221E30EC
:10095A00C8000230C900C530CA00E6220A30370290
:10096A000318BE2C1E30C8000230C9003730CA0036
:10097A00E622380839060319D92C3908C800C430C8
:10098A00C90077222F30C8000230C900C530CA001A
:10099A00E6220A3039020318D92C2F30C800023057
:1009AA00C9003930CA00E62242083F060319F42C6E
:1009BA003F08C800C430C90077224130C80002305D
:1009CA00C900C530CA00E6220A303F020318F42CD7
:1009DA004130C8000230C9002430CA00E6220800AB
:1009EA0068238316C801792300308316C8001030A3
:1009FA00C90038231430C4004408003C03180C2DE5
:100A0A006430D5001930D6000320C403012D172302
:100A1A00C801C9012630CA00AB22C8010130C90089
:100A2A003B30CA00E6222A30C8000130C9006A30C9
:100A3A00CA00E6223B30C8000130C9006C30CA0047
:100A4A00E6224130C8000130C9006730CA00E622F8
:100A5A00C8010230C900A030CA00E6222A30C80004
:100A6A000230C9006E30CA00E6223B30C8000230AC
:100A7A00C900B230CA00E622C8010430C900A73052
:100A8A00CA00E6222530C8000430C900AF30CA00C7
:100A9A00E6224030C8000430C9004C30CA00E622C1
:100AAA005B30C8000430C9005230CA00E622C801CF
:100ABA000530C9004230CA00E6222030C80005309D
:100ACA00C9004930CA00E6224030C8000530C900D2
:100ADA005E30CA00E6225B30C8000530C9006430C7
:100AEA00CA00E622C8010730C9005530CA00E6220A
:100AFA002A30C8000730C900DA30CA000730CB00F4
:040B0A002F2208008E
:100B0E0083160313850101308600870103178801C0
:040B1E008901080041
:100B220056208A110A128000840AC00A0319C10AD7
:080B3200F003031D912D0800E2
:100B3A000A1600240A128725F524CD23A22DA42DF6
:10280000203084004A3083120313F0007E30831698
:10281000C0000730C1000A1291250A16A0308400BA
:1028200007308312F000D3308316C0000730C10098
:102830000A1291250A166A30840004308312F000CF
:10284000DF308316C0000730C1000A1291250A1636
:10285000A73084000B308312F000C8308316C0000C
:102860000730C1000A1291250A166E30840002302A
:102870008312F000E5308316C0000730C1000A1251
:1028800091250A16B230840002308312F000E33042
:102890008316C0000730C1000A1291250A160800ED
:100B500000340034003400340034003400345F3496
:100B600000340034003407340034073400341434C3
:100B70007F3414347F34143424342A347F342A34B8
:100B80001234233413340834643462343634493430
:100B900055342234503400340534033400340034E6
:100BA00000341C34223441340034003441342234C3
:100BB0001C34003408342A341C342A3408340834F1
:100BC00008343E34083408340034503430340034AF
:100BD000003408340834083408340834003430341D
:100BE00030340034003420341034083404340234F7
:100BF0003E345134493445343E34003442347F3439
:100C00004034003442346134513449344634213460
:100C1000413445344B3431341834143412347F3475
:100C20001034273445344534453439343C344A345F
:100C300049344934303401347134093405340334CF
:100C40003634493449344934363406344934493425
:100C500029341E3400343634363400340034003441
:100C6000563436340034003400340834143422341A
:100C700041341434143414341434143441342234CC
:100C80001434083400340234013451340934063445
:100C900032344934793441343E347E3411341134A1
:100CA00011347E347F3449344934493436343E3447
:100CB00041344134413422347F344134413422348C
:100CC0001C347F3449344934493441347F34093445
:100CD0000934013401343E34413441345134323426
:100CE0007F340834083408347F34003441347F348E
:100CF000413400342034403441343F3401347F34B3
:100D000008341434223441347F3440344034403485
:100D100040347F340234043402347F347F3404346A
:100D2000083410347F343E344134413441343E344D
:100D30007F3409340934093406343E3441345134A3
:100D400021345E347F34093419342934463446342E
:100D50004934493449343134013401347F34013465
:100D600001343F344034403440343F341F34203465
:100D7000403420341F347F342034183420347F34FE
:100D8000633414340834143463340334043478344E
:100D90000434033461345134493445344334003429
:100DA00000347F3441344134023404340834103484
:100DB0002034413441347F3400340034043402346C
:100DC000013402340434403440344034403440343C
:100DD00000340134023404340034203454345434A4
:100DE000543478347F3448344434443438343834D8
:100DF000443444344434203438344434443448345F
:100E00007F343834543454345434183408347E34F1
:100E100009340134023408341434543454343C3426
:100E20007F340834043404347834003444347D345A
:100E3000403400342034403444343D3400340034F1
:100E40007F34103428344434003441347F34403407
:100E500000347C3404341834043478347C3408345A
:100E60000434043478343834443444344434383426
:100E70007C341434143414340834083414341434E2
:100E800018347C347C340834043404340834483452
:100E9000543454345434203404343F3444344034CF
:100EA00020343C344034403420347C341C342034EE
:100EB000403420341C343C344034303440343C34EE
:100EC000443428341034283444340C3450345034EE
:100ED00050343C344434643454344C34443400345A
:100EE0000834363441340034003400347F34003464
:0C0EF0000034003441343634083400343F
:040EFC00303400345A
:040F00003034003455
:040F04003034003451
:100F08002A342A342A342A342A34533456342D3491
:100F180043344F34523450342A342A342A342A344D
:020F2800003493
:040F2A00303400342B
:040F2E003034003427
:0E0F320044344134543445343A342D340034C0
:0E0F400043344F344D3450343A342D340034A1
:060F4E00303430340034A1
:0C0F540052344F3454343A342D340034FD
:060F60003034303400348F
:100F66005334543441345434553453343A342D3490
:020F7600003445
:0C0F7800523445344D343A342D340034EA
:060F84003034303400346B
:060F8A0032343034003463
:100F90004D344F3454344F3452343A342D340034B9
:060FA0003034303400344F
:0E0FA600543449344D3445343A342D3400343B
:0A0FB400533454344F3450340034E9
:040FBE003A3400348D
:040FC2003A34003489
:040FC6003A34003485
:040FCA003A34003481
:020FCE000034ED
:101000000034003400340034003400340034003440
:101010007E3481349534B134B134953481347E34A6
:101020007E34FF34EB34CF34CF34EB34FF347E34B2
:101030000E341F343F347E343F341F340E340034BA
:1010400008341C343E347F343E341C3408340034BD
:101050001834BA34FF34FF34FF34BA34183400344F
:101060001034B834FC34FF34FC34B8341034003459
:101070000034003418343C343C3418340034003428
:10108000FF34FF34E734C334C334E734FF34FF3470
:1010900000343C3466344234423466343C340034E8
:1010A000FF34C3349934BD34BD349934C334FF3470
:1010B0007034F83488348834FD347F3407340F3486
:1010C00000344E345F34F134F1345F344E34003444
:1010D000C034E034FF347F3405340534073407343A
:1010E000C034FF347F340534053465347F343F34F5
:1010F00099345A343C34E734E7343C345A34993424
:101100007F343E343E341C341C34083408340034FC
:10111000083408341C341C343E343E347F340034EC
:10112000003424346634FF34FF346634243400340D
:1011300000345F345F34003400345F345F34003493
:1011400006340F3409347F347F3401347F347F34E4
:101150004034DA34BF34A534FD3459340334023416
:10116000003470347034703470347034703400343F
:1011700080349434B634FF34FF34B634943480343D
:101180000034043406347F347F34063404340034AD
:101190000034103430347F347F3430341034003431
:1011A0000834083408342A343E341C3408340034FB
:1011B00008341C343E342A340834083408340034EB
:1011C0003C343C3420342034203420342034003467
:1011D00008341C343E34083408343E341C3408349B
:1011E000303438343C343E343E343C34383430349B
:1011F00006340E341E343E343E341E340E3406346F
:10120000003400340034003400340034003400343E
:10121000003406345F345F34063400340034003464
:101220000034073407340034073407340034003402
:1012300014347F347F3414347F347F3414340034D6
:1012400024342E346B346B343A341234003400348A
:1012500046346634303418340C3466346234003426
:1012600030347A344F345D3437347A34483400348F
:1012700004340734033400340034003400340034C0
:1012800000341C343E3463344134003400340034C0
:101290000034413463343E341C34003400340034B0
:1012A00008342A343E341C341C343E342A34083486
:1012B000083408343E343E340834083400340034F2
:1012C00000348034E03460340034003400340034BE
:1012D000083408340834083408340834003400343E
:1012E000003400346034603400340034003400349E
:1012F0006034303418340C34063403340134003490
:101300003E347F34713459344D347F343E340034AC
:10131000403442347F347F3440344034003400342D
:1013200062347334593449346F34663400340034D1
:1013300022346334493449347F3436340034003441
:1013400018341C34163453347F347F345034003412
:1013500027346734453445347D343934003400341F
:101360003C347E344B3449347934303400340034E6
:1013700003340334713479340F34073400340034C7
:1013800036347F34493449347F34363400340034C1
:1013900006344F34493469343F341E340034003449
:1013A00000340034663466340034003400340034D1
:1013B00000348034E63466340034003400340034C1
:1013C00008341C343634633441340034003400347F
:1013D0002434243424342434243424340034003495
:1013E00000344134633436341C340834003400345F
:1013F00002340334513459340F3406340034003489
:101400003E347F3441345D345D341F341E34003447
:101410007C347E34133413347E347C340034003412
:1014200041347F347F34493449347F343634003496
:101430001C343E3463344134413463342234003448
:1014400041347F347F34413463343E341C340034BF
:1014500041347F347F3449345D3441346334003463
:1014600041347F347F3449341D3401340334003433
:101470001C343E3463344134513473347234003498
:101480007F347F34083408347F347F3400340034B0
:10149000003441347F347F3441340034003400342C
:1014A00030347034403441347F343F3401340034BC
:1014B00041347F347F3408341C347734633400344F
:1014C00041347F347F3441344034603470340034EC
:1014D0007F347F340E341C340E347F347F34003438
:1014E0007F347F3406340C3418347F347F34003436
:1014F0001C343E346334413463343E341C34003491
:1015000041347F347F34493409340F340634003495
:101510001E343F34213471347F345E34003400345F
:1015200041347F347F34093419347F3466340034D5
:1015300026346F344D34593473343234003400342B
:10154000033441347F347F34413403340034003475
:101550007F347F34403440347F347F34003400346F
:101560001F343F34603460343F341F34003400345F
:101570007F347F343034183430347F347F34003457
:10158000433467343C3418343C34673443340034D7
:1015900007344F34783478344F340734003400340F
:1015A00047346334713459344D3467347334003400
:1015B00000347F347F34413441340034003400340B
:1015C0000134033406340C341834303460340034BD
:1015D0000034413441347F347F34003400340034EB
:1015E00008340C340634033406340C340834003424
:1015F000803480348034803480348034803480344B
:10160000003400340334073404340034003400342C
:1016100020347434543454343C34783440340034FA
:1016200041347F343F3448344834783430340034E3
:1016300038347C34443444346C342834003400343A
:1016400030347834483449343F347F3440340034C3
:1016500038347C34543454345C341834003400341A
:1016600048347E347F344934033402340034003447
:101670009834BC34A434A434F8347C3404340034B6
:1016800041347F347F34083404347C34783400347B
:10169000003444347D347D3440340034003400342C
:1016A0006034E03480348034FD347D3400340034E0
:1016B00041347F347F34103438346C344434003453
:1016C000003441347F347F344034003400340034FB
:1016D0007C347C34183438341C347C347834003412
:1016E0007C347C34043404347C3478340034003466
:1016F00038347C34443444347C343834003400345A
:101700008434FC34F834A43424343C3418340034A5
:1017100018343C342434A434F834FC348434003495
:1017200044347C3478344C3404341C34183400345D
:1017300048345C3454345434743424340034003425
:10174000003404343E347F344434243400340034D0
:101750003C347C34403440343C347C3440340034B9
:101760001C343C34603460343C341C340034003469
:101770003C347C347034383470347C343C34003441
:1017800044346C343834103438346C3444340034D9
:101790009C34BC34A034A034FC347C340034003499
:1017A0004C34643474345C344C3464340034003469
:1017B000083408343E347734413441340034003442
:1017C000003400340034773477340034003400348B
:1017D0004134413477343E34083408340034003422
:1017E000023403340134033402340334013400344A
:1017F000703478344C3446344C347834703400349B
:101800000E349F349134B134FB344A340034003404
:101810003A347A34403440347A347A3440340034C0
:1018200038347C34543455345D3419340034003445
:10183000023423347534553455347D347B3442348A
:1018400021347534543454347D3479344034003484
:1018500021347534553454347C3478344034003475
:1018600020347434573457347C3478344034003462
:1018700018343C34A434A434E43440340034003408
:1018800002343B347D34553455345D341B340234DA
:1018900039347D34543454345D34193400340034D4
:1018A00039347D34553454345C34183400340034C5
:1018B000013445347C347C34413401340034003408
:1018C0000234033445347D347D34433402340034EF
:1018D000013445347D347C344034003400340034E9
:1018E00079347D341634123416347D34793400342E
:1018F000703478342B342B34783470340034003422
:1019000044347C347C34553455344534003400340C
:1019100020347434543454347C347C34543454344B
:101920007C347E340B3409347F347F3449340034C2
:1019300032347B34493449347B343234003400341B
:1019400032347A34483448347A343234003400340F
:1019500032347A344A344834783430340034003401
:101960003A347B34413441347B347A34403400346B
:101970003A347A3442344034783478344034003461
:101980009A34BA34A034A034FA347A3400340034AF
:10199000013419343C34663466343C34193401342F
:1019A0003D347D34403440347D343D3400340034A3
:1019B00018343C342434E734E734243424340034F9
:1019C00068347E347F344934433466342034003400
:1019D0002B342F34FC34FC342F342B3400340034BB
:1019E000FF34FF34093409342F34F634F834A0348A
:1019F0004034C0348834FE347F3409340334023434
:101A000020347434543455347D34793440340034C3
:101A1000003444347D347D344134003400340034A7
:101A20003034783448344A347A3432340034003430
:101A300038347834403442347A347A3440340034A0
:101A40007A347A340A340A347A3470340034003404
:101A50007D347D34193431347D347D3400340034A8
:101A6000003426342F3429342F342F3428340034D2
:101A7000003426342F3429342F34263400340034F3
:101A8000303478344D3445346034203400340034FC
:101A90003834383408340834083408340034003416
:101AA0000834083408340834383438340034003406
:101AB0004F346F3430341834CC34EE34BB3491347A
:101AC0004F346F34303418346C347634FB34F9349A
:101AD0000034003400347B347B3400340034003470
:101AE00008341C343634223408341C34363422345E
:101AF000223436341C340834223436341C3408344E
:101B0000AA34003455340034AA3400345534003437
:101B1000AA345534AA345534AA345534AA34553429
:101B2000DD34FF34AA347734DD34AA34FF3477341B
:101B3000003400340034FF34FF3400340034003407
:101B4000103410341034FF34FF34003400340034C7
:101B5000143414341434FF34FF34003400340034AB
:101B600010341034FF34FF340034FF34FF340034B9
:101B700010341034F034F0341034F034F0340034D5
:101B8000143414341434FC34FC3400340034003481
:101B900014341434F734F7340034FF34FF34003491
:101BA00000340034FF34FF340034FF34FF34003499
:101BB00014341434F434F4340434FC34FC34003479
:101BC000143414341734173410341F341F340034D1
:101BD000103410341F341F3410341F341F340034B9
:101BE0001434143414341F341F34003400340034DB
:101BF000103410341034F034F03400340034003435
:101C00000034003400341F341F34103410341034C6
:101C10001034103410341F341F3410341034103486
:101C2000103410341034F034F034103410341034D4
:101C3000003400340034FF34FF34103410341034D6
:101C40001034103410341034103410341034103474
:101C5000103410341034FF34FF3410341034103486
:101C6000003400340034FF34FF341434143414349A
:101C700000340034FF34FF340034FF34FF341034B8
:101C8000003400341F341F34103417341734143424
:101C900000340034FC34FC340434F434F4341434AC
:101CA00014341434173417341034173417341434EC
:101CB00014341434F434F4340434F434F434143474
:101CC00000340034FF34FF340034F734F734143474
:101CD00014341434143414341434143414341434C4
:101CE00014341434F734F7340034F734F73414343C
:101CF000143414341434173417341434143414349E
:101D0000103410341F341F3410341F341F34103477
:101D1000143414341434F434F434143414341434C3
:101D200010341034F034F0341034F034F034103413
:101D3000003400341F341F3410341F341F34103467
:101D40000034003400341F341F3414341434143479
:101D5000003400340034FC34FC34143414341434AF
:101D600000340034F034F0341034F034F0341034F3
:101D700010341034FF34FF341034FF34FF34103487
:101D8000143414341434FF34FF341434143414343D
:101D90001034103410341F341F3400340034003435
:101DA000003400340034F034F03410341034103483
:101DB000FF34FF34FF34FF34FF34FF34FF34FF348B
:101DC000F034F034F034F034F034F034F034F034F3
:101DD000FF34FF34FF34FF34003400340034003467
:101DE0000034003400340034FF34FF34FF34FF3457
:101DF0000F340F340F340F340F340F340F340F34CB
:101E000038347C3444346C3438346C3444340034E6
:101E1000FC34FE342A342A343E3414340034003482
:101E20007E347E3402340234063406340034003406
:101E300002347E347E3402347E347E340234003404
:101E4000633477345D3449346334633400340034AC
:101E500038347C3444347C343C340434043400342A
:101E60008034FE347E34203420343E341E3400343A
:101E70000434063402347E347C34063402340034B4
:101E80009934BD34E734E734BD3499340034003438
:101E90001C343E346B3449346B343E341C340034CF
:101EA0004C347E347334013473347E344C34003417
:101EB000303478344A344F347D343934003400348B
:101EC00018343C3424343C343C3424343C3418340A
:101ED0009834FC3464343C343E3427343D34183474
:101EE0001C343E346B3449344934003400340034FB
:101EF0007E347F34013401347F347E340034003446
:101F00002A342A342A342A342A342A340034003435
:101F1000443444345F345F34443444340034003453
:101F2000403451345B344E34443440340034003453
:101F3000403444344E345B34513440340034003443
:101F4000003400340034FE34FF34013407340634E6
:101F50006034E0348034FF347F34003400340034A3
:101F6000083408346B346B340834083400340034DB
:101F700024343634123436342434363412340034B3
:101F8000003406340F3409340F340634003400347E
:101F90000034003400341834183400340034003471
:101FA0000034003400341034103400340034003471
:101FB000103430347034C034FF34FF340134013411
:101FC00000341F341F3401341F341E3400340034F5
:101FD000003419341D341734123400340034003402
:101FE000003400343C343C343C343C340034003461
:101FF0000034003400340034003400340034003441
:10200000FF34FF34FF34FF34FF34FF34FF34FF3438
:10201000FF34FF34FF34FF34FF34FF34FF34FF3428
:10202000FF34FF34FF34FF34FF34FF34FF34FF3418
:10203000FF34FF34FF34FF34FF34FF34FF34FF3408
:10204000FF340134013401340134013401340134EA
:1020500001340134013401340134013401340134D8
:1020600001340134013401340134013401340134C8
:102070000134013401340134C134C134E134E13478
:10208000E134E134C134C134013401340134013468
:102090000134013401340134013401340134013498
:1020A0000134013401340134013401340134013488
:1020B00001340134FF34FF34FF34FF34FF34FF3484
:1020C000FF34FF34FF34FF34FF34FF34FF34FF3478
:1020D000FF34FF34FF34FF34FF34FF34FF34FF3468
:1020E000FF34FF34FF34FF34FF34FF34FF34FF3458
:1020F000FF34FF34FF34FF34FF34FF34FF34FF3448
:10210000FF34FF34FF34FF34FF34FF34FF34FF3437
:10211000FF34FF34FF34FF34FF34FF34FF34FF3427
:10212000FF34FF34FF34FF34FF34FF34FF34FF3417
:10213000FF34FF34FF34FF34FF34FF34FF34FF3407
:10214000FF340034003400340034003400340034F0
:1021500000340034003400348034803480348034DF
:10216000803400340034003400340034003400344F
:10217000003400348034803487348F348F340F340B
:102180000F340F340F341F343334F034E034C034A0
:102190000034003418343C34FE34FE34FE347E34D3
:1021A0007E343C341834003400348034C034E0349D
:1021B000F034FC34FF34FF34FF34FF34FF34FF3499
:1021C000FF34FF34FF34FF34FF34FF34FF34FF3477
:1021D000FF34FF34FF34FF34FF34FF34FF34FF3467
:1021E000FF34FF34FF34FF34FF34FF34FF34FF3457
:1021F000FF34FF34FF34FF34FF34FF34FF34FF3447
:10220000FF34FF34FF34FF34FF34FF34FF34FF3436
:10221000FF34FF34FF34FF34FF34FF34FF34FF3426
:10222000FF34FF34FF34FF34FF34FF34FF34FF3416
:10223000FF34FF34FF34FF34FF34FF34FF34FF3406
:10224000FF340034003400340034003400340034EF
:10225000003400340F341F341F343F343F343F34D4
:102260007F34FF34CF348034803400340034003481
:102270000F341F341F343F343F343F347F347F34B6
:10228000CE3480348034003418343F347F34E0342A
:10229000C034803480348034FF34FF34E034F03490
:1022A000F03478347C343E341F340F340734033434
:1022B00001340034FF34FF34FF34FF34FF34FF3483
:1022C000FF34FF34FF34FF34FF34FF34FF34FF3476
:1022D000FF34FF34FF34FF34FF34FF34FF34FF3466
:1022E000FF34FF34FF34FF34FF34FF34FF34FF3456
:1022F000FF34FF34FF34FF34FF34FF34FF34FF3446
:10230000FF34FF34FF34FF34FF34FF34FF34FF3435
:10231000FF34FF34FF34FF34FF34FF34FF34FF3425
:10232000FF34FF34FF34FF34FF34FF34FF34FF3415
:10233000FF34FF34FF34FF34FF34FF34FF34FF3405
:10234000FF340034003400340034003400340034EE
:10235000003400347034F834F834F834F834F83495
:10236000F834F834F134633463346334633443341D
:10237000C234C63486348634CE34DC34F834F03497
:10238000E134F334F734FE34FC34F8347C343E3436
:102390003F341F341F340F340F34073403340134F7
:1023A000003400340034003400340034003400348D
:1023B00000340034FF34FF34FF34FF34FF34FF3483
:1023C000FF34FF34FF34FF34FF34FF34FF34FF3475
:1023D000FF34FF34FF34FF34FF34FF34FF34FF3465
:1023E000FF34FF34FF34FF34FF34FF34FF34FF3455
:1023F000FF34FF34FF34FF34FF34FF34FF34FF3445
:10240000FF34FF34FF34FF34FF34FF34FF34FF3434
:10241000FF34FF34FF34FF34FF34FF34FF34FF3424
:10242000FF34FF34FF34FF34FF34FF34FF34FF3414
:10243000FF34FF34FF34FF34FF34FF34FF34FF3404
:10244000FF34F034F03470347034703470347834D5
:1024500078347834783478343D343D343D343D3408
:102460003D343C343C343E341E341E341E340F3470
:102470000F3407340734073403340334033403348C
:1024800003340134013400340034003400340034A7
:10249000003400340034003400340034003400349C
:1024A000003400340034003400340034003400348C
:1024B00000340034FF34FF34FF34FF34FF34FF3482
:1024C000FF34FF34FF34FF34FF34FF34FF34FF3474
:1024D000FF34FF34FF34FF34FF34FF34FF34FF3464
:1024E000FF34FF34FF34FF34FF34FF34FF34FF3454
:1024F000FF34FF34FF34FF34FF34FF34FF34FF3444
:10250000FF34FF34FF34FF34FF34FF34FF34FF3433
:10251000FF34FF34FF343F341F341F345F34DF3463
:10252000DF34DF34DF34DF34DF34DF34DF34FF34F3
:10253000DF34DF349F349F341F341F341F341F3483
:10254000DF34DC34FC34DC341C341C341C349C3468
:10255000DC34DC34FC34FC34FC34FC34FC34FC343B
:10256000FC347C343C341C349C34DC34DC34DC34CB
:10257000DC34DC349C349C34FC34FC34FC34FC34DB
:102580007C343C343C341C349C349C349C349C342B
:102590001C343C343C347C34FC34FC34FC34DC34BB
:1025A000DC349C341C341C341C341C34DC34DC34EB
:1025B000DC34DC34DF341F341F341F343F34FF3449
:1025C000FF34DF34DF349F341F341F341F341F3493
:1025D0001F34DF34DF34DF34DF341F341F343F3443
:1025E0003F34FF34FF34FF34FF34FF34FF34FF3413
:1025F000FF34FF34FF34FF34FF34FF34FF34FF3443
:10260000FF34FF34FF34FF34FF34FF34FF34FF3432
:10261000FF34FF34FF34F634F634F634F634F6344F
:10262000F634F634F634F634F434F034F034F1346D
:10263000FF34FF34FF34FF34FF34FE34FC34F03415
:10264000F034F134F134F034FC34FE343F34BF3430
:102650003F34F934F934F934F934F9343F34FF3480
:10266000BF34F834F834F034F334F734F734F73453
:10267000F734F734F334F334FF34FF34FF343C34AD
:10268000F834F0343034E334E734E734E734E73413
:10269000E334F034F034F8343C34FF34FF34F734AE
:1026A000F734F734F034F034F034F034F434F434F4
:1026B000F434FC34F8343034F234F234F634F73491
:1026C000FF34FF34F734F734F034F034F034F034BE
:1026D000F034F434F434FC34FC34FC34FC34FE3494
:1026E000FE34FF34FF34FF34FF34FF34FF34FF3453
:1026F000FF34FF34FF34FF34FF34FF34FF34FF3442
:10270000FF34FF34FF34FF34FF34FF34FF34FF3431
:10271000FF34FF34FF34FF34FF34FF34FF34FF3421
:10272000FF34FF34FF34FF34FF34FF34FF34FF3411
:10273000FF34FF34FF34FF34FF34FF34FF34FF3401
:10274000FF34FF34FF34FF34FF34FF34F034F73408
:10275000F034FF34F034F434F434FF34F034FF3424
:10276000F034FF34F834F734F834FF34F034F43410
:10277000F434FF34F034FE34FE34FF34FE34F034ED
:10278000F634FF34F034FE34F034FF34F034F434F3
:10279000F434FF34FF34FF34F034F634F034FF34D3
:1027A000FF34F034F434F434FF34FF34F434F234CE
:1027B000F234FF34FE34F034F634FF34FF34FF34A7
:1027C000FF34FF34FF34FF34FF34FF34FF34FF3471
:1027D000FF34FF34FF34FF34FF34FF34FF34FF3461
:1027E000FF34FF34FF34FF34FF34FF34FF34FF3451
:1027F000FF34FF34FF34FF34FF34FF34FF34FF3441
:04400E00D4300007A3
:00000001FF
