:03000000020B29C7
:0C0B2900787FE4F6D8FD758151020B7056
:100DE70053312053322053332053342053350020BE
:100DF70054494D45205345542000204D4F4445202C
:100E070000446174653A0054696D653A002054499D
:100E17004D4520495320002053544F52454420004C
:100F5900012000060F86898CC6C9CC051700000040
:050F690000000137F05B
:100D6000EFD3943B400674242FFF803AEFD39431A5
:100D70004006741E2FFF802EEFD394274006741870
:100D80002FFF8022EFD3941D400674122FFF801690
:100D9000EFD394134006740C2FFF800AEFD394090D
:070DA000400474062FFF223E
:100BB500E4FF120FAD8F167F01120FAD8F1D7F025F
:100BC500120FAD8F1C7F04120FAD8F0C7F05120F16
:100BD500AD8F0E7F06120FAD8F15AF16120F6F8FEB
:100BE50016AF1D120F6F8F1DAF1C120F6F8F1CAF2D
:100BF5000C120F6F8F0CAF0E120F6F8F0EAF1512F9
:100C05000F6F8F15AD1C7FC6120E27AF1C120FC1BB
:100C15007D2E7FC8120F0DAD1D7FC9120E27AF1D8A
:100C2500120FC17D2E7FCB120F0DAD167FCC120E8C
:060C350027AF16020FC1FB
:100C3B00A9B0E97803A2E713D8FBF97D047C00AFD8
:100C4B000574017E00A807088005C333CE33CED8C8
:100C5B00F9FFE9FB3395E05EFEEF5BFF4E701C7412
:100C6B00172DF8E6701574172DF87601AB05740186
:100C7B00A803088002C333D8FC623774172DF8E63B
:100C8B00B4020674172DF8E4F6EF4E600674172DB8
:100C9B00F87602ED1D70011CEDF47002ECF4709F00
:010CAB002226
:100CAC007541007542C0753F00754004AE3FAF40C2
:100CBC007C007D03120AC2EF24C0F542E43EF541EC
:100CCC0074017E00A840088005C333CE33CED8F91A
:100CDC00FFAD37ED3395E05EFEEF5D4EAF427D4FDD
:100CEC00600B120F0DE54204FF7D4E8009120F0DB3
:100CFC00E54204FF7D46120F0DE5401540700215CC
:0A0D0C003FC3E53F6480948050A2CD
:010D160022BA
:100D1700E4F53DF53E758920758DFD759850D28EA9
:100D2700120F997BFF7A0D79E775430075440F7FA2
:100D370080120DB5120C3B120CAC753D86753EA0AA
:100D47007F54120FC1AF37120FC1E4F53DF53E05D1
:090D57003EE53E70DF053D80DB46
:0F0FC1008F993099FD7FE87E03120FD4C29922D9
:100800007BFF7A0D79F67543007544107F80120DD9
:10081000B57BFF7A0E79017543007544107FC012D5
:100820000DB5120FD07F01120F2B120DA77BFF7A8F
:100830000E790E7543007544057FC0120DB5120B7D
:10084000B5802220B703020A0C7F0F120F2B740F02
:100850002520F8E6FF120F2B20B30F30B3FD052043
:10086000E520B406DEE4F52080D9740F2520F8E6F3
:100870006486703020B51130B5FD050CE50CC394CD
:10088000204015750C01801020B6B830B6FD150C4F
:10089000E50CB4FF03750C1F740F2520F8E6FFADBF
:1008A0000C020A06740F2520F8E66489703D20B515
:1008B0001B30B5FD050EE50EC3940D4003750E010A
:1008C000740F2520F8E6FFAD0E020A0630B60302CB
:1008D000084330B6FD150EE50EB4FF03750E0C741B
:1008E0000F2520F8E6FFAD0E020A06740F2520F84A
:1008F000E6648C703D20B51B30B5FD0515E515D3BC
:1009000094634003E4F515740F2520F8E6FFAD1558
:10091000020A0630B60302084330B6FD1515E51588
:10092000B4FF03751563740F2520F8E6FFAD1502BB
:100930000A06740F2520F8E664C6703920B51B300E
:10094000B5FD051CE51CC394184003E4F51C740FA9
:100950002520F8E6FFAD1C020A0630B60302084364
:1009600030B6FDD51C03751C17740F2520F8E6FF63
:10097000AD1C020A06740F2520F8E664C970372002
:10098000B51A30B5FD051DE51DC3943C4003E4F5E3
:100990001D740F2520F8E6FFAD1D806A30B60302F6
:1009A000084330B6FDD51D03751D3B740F2520F897
:1009B000E6FFAD1D8050740F2520F8E664CC60037F
:1009C00002084320B51F30B5FD7F0C120F2B051612
:1009D000E516C3943C4003E4F516740F2520F8E6B1
:1009E000FFAD16802130B60302084330B6FD7F0C00
:1009F000120F2B1516E516B4FF0375163B740F2561
:100A000020F8E6FFAD16120E270208437F0C120FE6
:100A10002B7BFF7A0E79147543007544107F80128A
:100A20000DB57BFF7A0E791E7543007544107FC0AB
:100A3000120DB5120FD0120FD0AF0C120D608F1F18
:100A4000AF0E120D608F23AF15120D608F39AF1CE2
:100A5000120D608F21AF1D120D608F22AF16120D87
:100A6000608F30AB30AD22AF21120E8BAB39AD238E
:100A7000AF1F120EAC7F01120F2B120DA77BFF7A56
:100A80000E790E7543007544057FC0120DB57FE8E1
:050A90007EFD020FD401
:100F99007F38120F2B7F06120F2B7F0C120F2B7F1E
:040FA90001020F2B07
:100F2B008FA0D283C284C2857F7D7E00120FD4C274
:080F3B00837F7D7E00020FD4CC
:100F0D008D46120F2B8546A0D285D283C2847F7D5C
:0E0F1D007E00120FD4C2837F7D7E00020FD4AF
:0E0DA7007BFF7A0E79087543007544057F8046
:080DB5008F3F8B408A41894207
:100DBD00E4F545C3E5459544E49543501CE53F25D1
:100DCD0045FFAB40AA41A942854582758300120AB1
:090DDD0095FD120F0D054580DAA9
:010DE60022EA
:020E27008F47F3
:100E2900ED75F06484ABF07A007C007D0AAF037E37
:100E390000120AD48F827E00AF037C007D0A120A59
:100E4900D48C488D49AF82EF2430FDAF47120F0D86
:0C0E5900E54704FFE5492430FD020F0DC1
:040FD0007FE87EFD3B
:0B0FD400EF1FAC0670011E4C70F622EF
:0A0FEC00120FD07FE87EFD020FD443
:020FAD008F5063
:100FAF00120FF6AF50120ECD8F51120FFFAF517EB1
:010FBF000031
:010FC000220E
:100E8B008F4A8D4B8B4C120FF6AD4CE4FF120F8437
:100E9B00AD4B7F01120F84AD4A7F02120F84020FFC
:010EAB00FF47
:100EAC008F4D8D4E8B4F120FF6AD4D7F04120F846C
:100EBC00AD4E7F05120F84AD4F7F06120F84020FCB
:010ECC00FF26
:100F6F00EF54F0C4540FFEEF540FFFEE75F00AA4C8
:040F7F002FFF7E00C2
:010F8300224B
:0D0FDF007508007509D07533007534D122F6
:100F84008F2F8D2E120F43852E0B120E6520D7F74F
:050F9400C2D7020FFFAF
:100ECD008F2F120F43120FF685340B120E6520D79C
:100EDD00F7120EEE121006C2D7120FFFAF0D7E00E5
:010EED0022E2
:090FF600D287D286C287C286228E
:070FFF00C287D286D28722CF
:100E65007F07E50BA807088002C313D8FC139287F8
:100E7500D286C2861FC3EF6480948050E5D287D2A4
:050E850086A287C28671
:010E8A002245
:100EEE00D287E4FFD286E50A25E0F50AA287E4332D
:0E0EFE00420AC2860FBF08EC850A0DE4F50A11
:010F0C0022C2
:07100600D287D286C28622C8
:100F4300120FF685090B120E6520D7F7852F0B12AA
:050F53000E6520D7F738
:010F58002276
:100B3500020D17E493A3F8E493A34003F68001F2B2
:100B450008DFF48029E493A3F85407240CC8C333C1
:100B5500C4540F4420C8834004F456800146F6DF90
:100B6500E4800B0102040810204080900F59E47EB8
:100B7500019360BCA3FF543F30E509541FFEE49385
:100B8500A360010ECF54C025E060A840B8E493A34C
:100B9500FAE493A3F8E493A3C8C582C8CAC583CA77
:100BA500F0A3C8C582C8CAC583CADFE9DEE780BE2F
:010F6E000082
:100A9500BB010CE58229F582E5833AF583E0225016
:100AA50006E92582F8E622BBFE06E92582F8E22260
:0D0AB500E58229F582E5833AF583E493227A
:100AC200EF8DF0A4A8F0CF8CF0A428CE8DF0A42E48
:020AD200FE2202
:100AD400BC000BBE0029EF8DF084FFADF022E4CC06
:100AE400F875F008EF2FFFEE33FEEC33FCEE9DECCF
:100AF400984005FCEE9DFE0FD5F0E9E4CEFD22ED15
:100B0400F8F5F0EE8420D21CFEADF075F008EF2F5E
:100B1400FFED33FD4007985006D5F0F222C398FD4F
:050B24000FD5F0EA22EC
:00000001FF
