:040000009031722A9F
:06000600000000000800EC
:0A000C002130FD00FD0B082808005C
:100016000F30FC004730FD00FD0B0F28FC0B0F28AE
:06002600000000000800CC
:10002C002300A21B1C2820008D131E2820008D17D6
:10003C002300221B242820000D13262820000D1736
:10004C002300A21A2C2820008D122E2820008D1699
:10005C002300221A342820000D12362820000D16F9
:10006C002100E0183C2820000E143E2820000E1021
:10007C000E1603200E122300A219472820008D1300
:10008C00492820008D17230022194F2820000D131A
:10009C00512820000D172300A218572820008D127C
:1000AC00592820008D16230022185F2820000D12DD
:1000BC00612820000D162100E018672820000E147E
:1000CC00692820000E100E1603200E122100E01CD1
:0A00DC0071280B207228062008008E
:1000E6000E30840000080008F000F013700880004D
:0200F600080000
:1000F8000E30840000080008F000701370088000BB
:020108000800ED
:10010A002200ED01EE0180302300A0000030A100A2
:10011A00200821040319B5280320032021008E1783
:10012A00032003200E17601020000E1BA1282100B7
:10013A00601CA028A128992820008E1FAC28230023
:10014A0020082200ED04230021082200EE040320E7
:10015A0003207C2021000E132300A136A00C8D2839
:10016A0021008E170320032022006B086C04031958
:10017A00C128732021008E132100032003200E17AB
:10018A00601020000E1BCE282100601CCD28CE282E
:10019A00C6282100032003207C200E1303200320FD
:0C01AA0073208E1322006D08F000080086
:1001B6002100E01022006B082300A2001620210077
:0401C600E014080039
:1001CA00732021008E13032003200E1760102000D5
:1001DA000E1BF4282100601CF328F428EC282100C7
:1001EA0003200320032003200320032003200320ED
:0801FA008E170320032008000A
:1002020001302200EE000030EF008030EC00ED0102
:100212006C086D04031937290320032003200320EF
:100222007C2021000E130320032022006C086B05A2
:10023200F00000306D05F1007008710403192429E3
:1002420021008E172729210073208E1303200320FB
:100252000E17601020000E1B33292100601C32296A
:1002620033292B292200ED36EC0C0929EE01EF018E
:10027200032003207C2021000E13032003208E176D
:1002820003200320032003200E17601020000E1B02
:100292004F292100601C4E294F2947292200EE01D7
:1002A200EF010320032020008E1F592922006E1423
:1002B2000320032003200320032003200320032024
:1002C2000320032003200320032003200320032014
:1002D2007C2021000E1373208E1322006E08F00082
:0202E200080012
:1002E4002000F8010830FC00700DF80D7408F802C5
:1002F40003187E29F8070310F00DFC0B762908007B
:1003040021008E17032003200E17032003207320DF
:0C0314008E13032003207C200E13080031
:1003200022006508F0006608F100F136F00CF136A5
:10033000F00C70082C0092000630F10022006508D5
:10034000F00071080319A729F035FF3EA2297008B3
:060350002C0091040800DE
:1003560020007008F100F001FD0171080319003456
:100366007406F200F21BFD09F41FBF29F409F40A12
:10037600F109F10AF41BD5290730FC007108F40CC9
:100386000318CC29FC0BC229F1010034F40C031824
:10039600F107FD0DF10CF00CFC0BC929FD0DF10C5C
:1003A600F00C0034F1017D0DF10CF00C0034080066
:1003B60020007008F100F0010830FC007108F40C10
:1003C6000318E929FC0BE229F10100340310EE2998
:1003D600F40C0318F107F10CF00CFC0BEB290800E8
:1003E60022006508F0006608F100F136F00CF136DF
:1003F600F00C70082C0098000630F1002200650809
:10040600F000710803190A2AF035FF3E052A700824
:060416002C009704080011
:10041C002200E80182210730F20022006608F00079
:10042C006708F100720803191F2AF136F00CFF3E21
:10043C00192A0E30F00570086504EB000121FF301D
:10044C006605EB0001218221013022006504EB00DE
:10045C000121EB01EC0185207008E800E520220069
:06046C006808F000080022
:1004720022006508F0006608F100F136F00CF13652
:10048200F00C70082C009B000630F1002200650879
:10049200F00071080319502AF035FF3E4B2A70080C
:0604A2002C009A04080082
:1004A80082210730F20022006608F0006708F10098
:1004B80072080319632AF136F00CFF3E5D2A0E30EC
:1004C800F00570086504EB000121FF306605EB00BC
:1004D80001216808EB000121E5201A30FC00F83002
:0E04E800FD00FD0B752AFC0B752A00000800B4
:1004F6002200E8010330680203188B2A68086607A1
:1005060086000030673D870020308100E80A7D2A9A
:100516006808660786000030673D87008101E803AA
:1005260068086607E9000030673DEA000A30F40013
:100536006508F00072217808F0003030F0072200DC
:10054600690886006A088700700881000A30F4008E
:100556006508F000722170082200E5007008003A74
:0C056600031DB62AB82AE803932A0800F7
:1005720022006508F0006608F100F136F00CF13651
:10058200F00C70082C0095000630F100220065087E
:10059200F00071080319D02AF035FF3ECB2A70080B
:0605A2002C009404080087
:1005A800E52A80302200E500F72AC030E500F72A66
:1005B8009430E500F72AD430E500F72A8030E500CA
:1005C800F72A22006508013A0319D52A6508023A74
:1005D8000319D92A6508033A0319DC2A6508043A7D
:1005E8000319DF2AE22A6603F0006508F00770089D
:1005F800E50070082300A20016202100E010220068
:10060800E9016908670784000030683D8500000833
:1006180003191A2B6908670784000030683D8500B4
:100628000008EB00DB202200E90A052B2100E0147A
:020638000800B8
:10063A0022005108F2005208F3005408F00055084D
:10064A00F1000130D4020030D53B7008710403195F
:10065A00382B720886007308870053088100F20A53
:10066A000319F30A222B5108F0005208F10008007E
:10067A004E2B80302200D100602BC030D100602B7D
:10068A009430D100602BD430D100602B8030D1005F
:10069A00602B22005108013A03193E2B5108023AF5
:1006AA000319422B5108033A0319452B5108043AFE
:1006BA000319482B4B2B5203F0005108F00770081E
:1006CA00D1002100E01470082300A20016202100A6
:1006DA00E010220053082300A20016202100E01493
:0206EA00080006
:1006EC002000FB01FA01F9018030F800F10CF00C4C
:1006FC00031C892B7408F90775080318750FFA0782
:10070C000318FB0A0310F01F912B7408FA077508E5
:10071C000318750FFB07FB0CFA0CF90CF80C031CF7
:10072C007C2B7B08F3007A08F2007908F10078083A
:04073C00F0000800C1
:1007400022005108F3005208F4005308F500540841
:10075000F60052085402031DAF2B51085302031830
:10076000E22B55087507F1005608763DF200720835
:100770007402031DBD2B710873020318E22B550888
:10078000F5075608F63D5508F3075608F43D0130C5
:10079000F3020030F43B0130F5020030F63B7508FF
:1007A00084007608850073088600740887000008B6
:1007B00081000130D5020030D63B55085604031D98
:1007C000C72BFE2B550856040319FE2B7508840011
:1007D0007608850073088600740887000008810089
:1007E000F30A0319F40AF50A0319F60A0130D502CF
:1007F0000030D63B55085604031DE62B5108F00087
:060800005208F10008009F
:100806002100E601063066020318C02EA7308400D8
:1008160000308500660884070318850A0008F10081
:10082600A030840000308500660884070318850A16
:1008360080300006F00080307106700203180A2D21
:10084600A030840000308500660884070318850AF6
:100856000008F100A7308400003085006608840790
:100866000318850A80307106F00080300006700299
:100876000318092DA730F1000030F2006608F107D1
:100886000318F20A71088400720885000008F00057
:10089600F0037108860072088700700881006608F8
:1008A600003A031D6A2CA7308400003085006608D4
:1008B60084070318850A0008F0006430F400AB21B1
:1008C60070082200E5007108E6009021E72C21005F
:1008D6006608013A031D832CA7308400003085008A
:1008E600660884070318850A0008F0006430F400DF
:1008F600AB2170082200E5007108E600B922E72C5A
:1009060021006608023A031D9C2CA73084000030A3
:100916008500660884070318850A0008F00064301D
:10092600F400AB2170082200E5007108E600F3210F
:10093600E72C21006608033A031DB52CA730840076
:1009460000308500660884070318850A0008F00051
:100956006430F400AB2170082200E5007108E6005F
:100966003922E72C21006608043A031DCF2CD23029
:100976002200E5000130E6000030E700A7308400E1
:10098600003085002100660884070318850A0008E0
:100996002200E8005422E72C6608053A031DE72CDE
:1009A600D2302200E5000230E6000030E700A73032
:1009B6008400003085002100660884070318850A34
:1009C60000082200E80054222100E7018030F000F0
:1009D6008030013A7002031DF22CF43067020318CE
:1009E600082D20000C18FB2C0C18FA2CF72CCE2EF8
:1009F6000330FC009730FD00FD0BFF2CFC0BFF2C99
:100A0600000000002100E70AE92C232CBD2EA030AF
:100A1600840000308500660884070318850A0008EC
:100A2600F100A730840000308500660884070318AB
:100A3600850A80300006F0008030710670020318C7
:100A46000B2EA0308400003085006608840703184A
:100A5600850A0008F100A73084000030850066088A
:100A660084070318850A80307106F000803000067E
:100A76007002031C0A2EA730F1000030F20066084F
:100A8600F1070318F20A710884007208850000084D
:100A9600F000F00A7108860072088700700881006D
:100AA6006608003A031D6B2DA730840000308500D0
:100AB600660884070318850A0008F0006430F4000D
:100AC600AB2170082200E5007108E6009021E82DB0
:100AD60021006608013A031D842DA73084000030EA
:100AE6008500660884070318850A0008F00064304C
:100AF600F400AB2170082200E5007108E600B92277
:100B0600E82D21006608023A031D9D2DA7308400BA
:100B160000308500660884070318850A0008F0007F
:100B26006430F400AB2170082200E5007108E6008D
:100B3600F321E82D21006608033A031DB62DA730E0
:100B4600840000308500660884070318850A0008BB
:100B5600F0006430F400AB2170082200E500710853
:100B6600E6003922E82D21006608043A031DD02D3F
:100B7600D2302200E5000130E6000030E700A73061
:100B86008400003085002100660884070318850A62
:100B960000082200E8005422E82D6608053A031DE5
:100BA600E82DD2302200E5000230E6000030E700F2
:100BB600A7308400003085002100660884070318EA
:100BC600850A00082200E80054222100E70180304F
:100BD600F0008030013A7002031DF32DF4306702F5
:100BE6000318092E20000C18FC2D0C18FB2DF82DCF
:100BF600CE2E0330FC009730FD00FD0B002EFC0BC3
:100C0600002E000000002100E70AEA2D242DBD2E4B
:100C1600A030840000308500660884070318850A22
:100C26000008F100A73084000030850066088407BC
:100C36000318850A71080006031DBD2E6608003AD2
:100C4600031D392EA730840000308500660884070E
:100C56000318850A0008F0006430F400AB21700820
:100C66002200E5007108E6009021B62E21006608F4
:100C7600013A031D522EA730840000308500660815
:100C860084070318850A0008F0006430F400AB21DD
:100C960070082200E5007108E600B922B62E210090
:100CA6006608023A031D6B2EA730840000308500CB
:100CB600660884070318850A0008F0006430F4000B
:100CC600AB2170082200E5007108E600F321B62E7C
:100CD60021006608033A031D842EA73084000030E5
:100CE6008500660884070318850A0008F00064304A
:100CF600F400AB2170082200E5007108E6003922F5
:100D0600B62E21006608043A031D9E2ED23022001C
:100D1600E5000130E6000030E700A730840000302F
:100D260085002100660884070318850A000822004A
:100D3600E8005422B62E6608053A031DB62ED230B8
:100D46002200E5000230E6000030E700A73084000C
:100D5600003085002100660884070318850A00080C
:100D66002200E800542220000C18BD2E0C18BC2EC0
:100D7600B92ECE2E2100E60A052CA7302200D1007E
:100D86000030D200A030D3000030D4000730D500A8
:080D96000030D600A023080084
:100D9E0021008E162C00930192011113911308005D
:100DAE0020001C1521008E112C0016179617080016
:100DBE002100E801E901EA01EB01EC010130230019
:100DCE00A200162021006708023A031DFB2E1730E1
:100DDE00E80001302200E5000130E6005C30E7005B
:100DEE000030E800D4223E2F6708013A031D0C2F75
:100DFE003B30E80001302200E5000130E600C5304E
:100E0E00E7000030E800D4223E2F6708043A031DA5
:100E1E001D2F1E30E80001302200E5000130E600F3
:100E2E00BA30E7000030E800D4223E2F6708053ABA
:100E3E00031D2E2F0C30E80001302200E50001309A
:100E4E00E600AE30E7000030E800D4223E2F6708FF
:100E5E00063A031D3E2F6330E80001302200E50004
:100E6E000130E600D030E7000030E800D422200048
:100E7E008C1A422F3E2FE9302200D1000030D200D2
:100E8E003030D3000230D4000030D5001D232100B5
:100E9E0066082200E500E930E6000030E7007B221C
:100EAE000230E5000130E600EA30E7000030E800ED
:100EBE00D42220008C186F2F2100E60A66086802E3
:100ECE0003186A2FE60120008C186E2F6A2F812FCF
:100EDE000C1A7E2F2100E603660868020318792F8C
:100EEE006808E60020000C1A7D2F792F812F0C1830
:100EFE00812F832F8C1A422F0C18862F832FD030E0
:100F0E002200E500210067082200E600E7010A3012
:100F1E00F40021006608F00072210430F100700820
:100F2E002100ED00EE0171080319A12FED35EE0D34
:100F3E00FF3E9B2F0A30F4006608F00072217808FD
:100F4E00F000700821006D042200E8005422080011
:100F5E0021006608F000F036F036F036F0360A3032
:100F6E00F400DB210F3021006605F1007108F00757
:020F7E00080069
:100F800020001C1521000C112C00191799170800BE
:100F900020001C1521008E102C001C179C17080027
:100FA00021008E152C00960195011413941308004E
:100FB00021000C152C0099019801171397130800B4
:100FC00021008E142C009C019B011A139A13080017
:100FD00020001C1521008E122C00131793170800F7
:100FE00021000E178E17601020000E1BFC2F210011
:0A0FF000601CFB2FFC2FF42F0800FB
:101000002200E001E101E20101302300A200803171
:101010001620883101302200E5000130E6004F3013
:10102000E7000030E8008031D4228831013022000E
:10103000E5000730E6004C30E7000030E800803182
:10104000D422883101302200E5000D30E60049301D
:10105000E7000030E8008031D422883102302200DD
:10106000E5000130E6005230E7000030E800803152
:10107000D422883102302200E5000730E6005930E2
:10108000E7000030E8008031D422883102302200AD
:10109000E5000D30E6005630E7000030E800803112
:1010A000D422883120005508013A031D5B28220014
:1010B000DE01DF01902820005508023A031D652853
:1010C000A9302200DE00DF01902820005508033AF5
:1010D000031D702852302200DE000130DF0090280E
:1010E00020005508043A031D7B28FB302200DE0057
:1010F0000130DF00902820005508053A031D86289E
:1011000002302200DE000230DF0090282000550867
:10111000063A031D902809302200DE000230DF006D
:101120002200D201073052020318832920005508FB
:10113000033C031CC22857302200E3000130E400C6
:101140005208E3070318E40AA030E5000730F00076
:101150005108F4008031DB218831700822005E07DD
:10116000E60071085F3DE7005208E6070030E73D02
:1011700080310E2288316308860064088700700879
:101180008100DC2822005730E3000130E4005208DF
:10119000E3070318E40AA030E50052085E07E60002
:1011A00000305F3DE70080310E2288316308860001
:1011B00064088700700881005208003A031DF8286F
:1011C0005730840001308500520884070318850ACF
:1011D0000008F0006430F4008031AB2188317008E1
:1011E0002200E5007108E6008031902188318029D5
:1011F00022005208013A031D15295730840001309E
:101200008500520884070318850A0008F00064303E
:10121000F4008031AB21883170082200E5007108AC
:10122000E6008031B9228831802922005208023A32
:10123000031D32295730840001308500520884078D
:101240000318850A0008F0006430F4008031AB21F7
:10125000883170082200E5007108E6008031F32132
:101260008831802922005208033A031D4F29573044
:10127000840001308500520884070318850A00089D
:10128000F0006430F4008031AB2188317008220016
:10129000E5007108E600803139228831802922007A
:1012A0005208043A031D6829D230E5000130E600F7
:1012B0000030E70057308400013085005208840771
:1012C0000318850A0008E8008031542288318029FB
:1012D00022005208053A031D8029D230E500023071
:1012E000E6000030E70057308400013085005208E6
:1012F00084070318850A0008E800803154228831E9
:101300002200D20A92285708F0000A30F4008031F7
:10131000DB21883170082200E5005330E6000130FF
:10132000E70080317B2288310130E5000330E600A0
:101330005430E7000130E8008031D42288312200A7
:101340005808F0000A30F4008031DB218831700841
:101350002200E5005330E6000130E70080317B22B7
:1013600088310130E5000930E6005430E7000130F3
:10137000E8008031D422883122005908F0000A3078
:10138000F4008031DB21883170082200E500533001
:10139000E6000130E70080317B2288310130E50032
:1013A0000F30E6005430E7000130E8008031D422ED
:1013B000883122005A08F0000A30F4008031DB2125
:1013C000883170082200E5005330E6000130E70064
:1013D00080317B2288310230E5000330E600543052
:1013E000E7000130E8008031D422883122005B0818
:1013F000F0000A30F4008031DB21883170082200CF
:10140000E5005330E6000130E70080317B2288316F
:101410000230E5000930E6005430E7000130E80012
:101420008031D422883122005C08F0000A30F400B8
:101430008031DB21883170082200E5005330E6005E
:101440000130E70080317B2288310230E5000F3027
:10145000E6005430E7000130E8008031D4228831C2
:101460000E302300A2008031162088312200D201E4
:10147000063052020318242C5208003A031D452A54
:101480000130E1000330E200712A5208013A031DE5
:101490004E2A0130E1000930E200712A5208023A76
:1014A000031D572A0130E1000F30E200712A520873
:1014B000033A031D602A0230E1000330E200712A82
:1014C0005208043A031D692A0230E1000930E200A3
:1014D000712A5208053A031D712A0230E1000F30CB
:1014E000E20020008C1EDD2B8C18D12A5730F10031
:1014F0000130F20022005208F1070318F20A7108C5
:101500008400720885000008F000F00A7108860067
:101510007208870070088100573084000130850010
:10152000520884070318850A8030093AF000803099
:10153000000670020318A52A573086000130870084
:10154000520886070318870A81015730840001304A
:101550008500520884070318850A0008F0000A3045
:10156000F4008031DB21883170082200E50053301F
:10157000E6000130E70080317B2288316108E50018
:101580006208E6005430E7000130E8008031D422E0
:10159000883101302200E00020008C18D02ACC2AAB
:1015A000322B0C1A2F2B5730F1000130F2002200A1
:1015B0005208F1070318F20A7108840072088500C6
:1015C0000008F000F00371088600720887007008B8
:1015D00081005730840001308500520884070318C9
:1015E000850A80300006F0008030003A700203184F
:1015F000032B5730860001308700520886070318F6
:10160000870A093081005730840001308500520874
:1016100084070318850A0008F0000A30F4008031BE
:10162000DB21883170082200E5005330E6000130EC
:10163000E70080317B2288316108E5006208E6001E
:101640005430E7000130E8008031D4228831013085
:101650002200E00020000C1A2E2B2A2B322B0C1813
:10166000322BDD2B22006008013A031DDC2BE00148
:101670005208003A031D542B573084000130850076
:10168000520884070318850A0008F0006430F4004B
:101690008031AB21883170082200E5007108E60036
:1016A000803190218831DC2B22005208013A031D41
:1016B000712B5730840001308500520884070318CD
:1016C000850A0008F0006430F4008031AB218831D5
:1016D00070082200E5007108E6008031B9228831E7
:1016E000DC2B22005208023A031D8E2B5730840057
:1016F00001308500520884070318850A0008F000AD
:101700006430F4008031AB21883170082200E5009C
:101710007108E6008031F3218831DC2B2200520869
:10172000033A031DAB2B573084000130850052086B
:1017300084070318850A0008F0006430F400803143
:10174000AB21883170082200E5007108E600803185
:1017500039228831DC2B22005208043A031DC42BA5
:10176000D230E5000130E6000030E7005730840059
:1017700001308500520884070318850A0008E80034
:10178000803154228831DC2B22005208053A031D97
:10179000DC2BD230E5000230E6000030E7005730A5
:1017A000840001308500520884070318850A000868
:1017B000E800803154228831712A20008C1AE12BF4
:1017C000DD2B0C18E42BE12B5508033C031C0B2CE0
:1017D000A0302200E5000730F0005108F40080310D
:1017E000DB218831700822005E07E60071085F3D4A
:1017F000E7005208E6070030E73D5730840001302B
:101800008500520884070318850A0008E800803123
:1018100054228831212CA0302200E50052085E07B6
:10182000E60000305F3DE70057308400013085005E
:10183000520884070318850A0008E8008031542202
:1018400088312200D20A382A0C302300A2008031CD
:061850001620883108009B
:101856002100E601E70120005508003A031D602C2F
:1018660001302300A2008031162088310130220089
:10187600E5000130E6003A30E7000030E80080314C
:10188600D422883102302200E5000130E6002B30F8
:10189600E7000030E8008031D42288310630FB00B2
:1018A6001330FC00AD30FD00FD0B572CFC0B572C04
:1018B600FB0B572C00000000232D20005508013A91
:1018C60003196E2C5508023A03196E2C5508033A73
:1018D60003196E2C132D21006708003A031D0E2DE7
:1018E60001302300A2008031162088310130220009
:1018F600E5000230E6000430F20020005508F00052
:10190600F101720803198B2CF035F10DFF3E852C81
:10191600D73070072200E7009430713DE8000230AE
:10192600E7070030E83D8031D422883102302200BA
:10193600E5000130E6000D30F0000030F100210036
:101946006608F4000030F41BFF30F5008031762382
:101956008831DD3070072200E7009230713DE800E3
:101966008031D422883101302200D1001030D200DB
:101976005E30D30080313D23883102302200D10011
:101986001030D2007630D30080313D2388312000DC
:101996008C1CD42C0C1ED42C8C1ED42C0C1CD42C9D
:1019A600CA2C8C18DD2C2100E60A20008C18DC2CB1
:1019B600D82CF92C0C1AE62C2100E60320000C1A70
:1019C600E52CE12CF92C8C1AF52C21006608183A26
:1019D600031DF02C0130E700F42C66082200D1002C
:1019E6000020F92C20000C18F92C0E2D8030210037
:1019F6006606F0008030003A70020318042D183095
:101A0600E6008030183AF00080306606700203184F
:101A16000D2DE6016E2C20000C18122D0E2D232DF7
:101A26005508043A0319202D5508053A0319202DA7
:101A36005508063A0319202D232D2200D101002036
:021A4600080096
:101A480021000E120E100D128D120D138D13200091
:101A58000E120E108D130D138D120D1280310B20E6
:101A6800883180310B20883180310B2088318D16E8
:101A78000D160E168031032088310E1280310B208E
:101A880088310E168031032088310E1280310B20E8
:101A980088310E168031032088310E1280310B20D8
:101AA80088310D120E168031032088310E128031D4
:101AB8000B2088310E168031032088310E128D12CA
:101AC8008D170E168031032088310E1280310B20BD
:101AD80088318D130D160E168031032088310E12B1
:101AE8000D120E168031032088310E1280310B2022
:101AF80088310E168031032088310E120D160E160D
:101B08008031032088310E1280310B2088310D126C
:101B18000E168031032088310E128D170D178D1681
:101B28000D160E168031032088310E1280310B20DD
:081B380088312100E0140800CF
:101B40002100E60120008C1AA62DA22D20008C1E5B
:101B5000242E01302300A20080311620883101306C
:101B60002200E5000630E6002230E7000030E80001
:101B70008031D422883102302200E5000130E600B5
:101B8000D730E7009430E8000430F2002100660806
:101B9000F0000030F01BFF30F10072080319D42D63
:101BA000F035F10DFF3ECE2D70082200E7077108D9
:101BB000E83D8031D422883101302200D10010303C
:101BC000D2005E30D30080313D23883102302200C4
:101BD000D1001030D2007630D30080313D238831DF
:101BE00020008C1CFA2D0C1EFA2D8C1EFA2D0C1CBC
:101BF000FA2DF02D8C18032E2100E60A20008C18F7
:101C0000022EFE2D0F2E0C1A0C2E2100E6032000B2
:101C10000C1A0B2E072E0F2E0C180F2E242E803090
:101C200021006606F0008030003A700203181A2E78
:101C30000630E6008030063AF0008030660670021A
:101C40000318232EE601A62D20000C18282E242E82
:0A1C5000210066082000D5000800FE
:101C5A00200020082200E500E130E6000030E7001D
:101C6A0080317B2288310130E5000630E600E2301F
:101C7A00E7000030E8008031D42288316208203A37
:101C8A00031D512E01302200D1000630D20030301F
:101C9A00D30080313D238831E1302200D100003069
:101CAA00D200D3010230D4000030D50080311D2388
:101CBA008831200048082200E500E130E6000030C3
:101CCA00E70080317B2288310130E5000930E600E7
:101CDA00E230E7000030E8008031D422883162081F
:101CEA00203A031D822E01302200D1000930D20091
:0C1CFA003030D30080313D2388310800D9
:101D060001302000EF002100E10121006108003AC6
:101D1600031DB12F01302300A20080311620883127
:101D260001302200E5000630E600DB30E700003037
:101D3600E8008031D422883102302200E5000130EB
:101D4600E600013020006F02F3000030EF1BFF3089
:101D5600F4000030F43B0430F2007308F00074081D
:101D6600F10072080319BB2EF035F10DFF3EB52EBA
:101D7600923070072200E7009530713DE80080310F
:101D8600D422883101302200E5001030E6006D30A3
:101D9600E7000030E8008031D4228831023022008A
:101DA600E5001030E6006B30E7000030E8008031D7
:101DB600D422883120008C1CE72E0C1EE72E8C1EA8
:101DC600E72E0C1CE72EDD2E8C18EE2EEF0A8C1853
:101DD600ED2EEA2EF82E0C1AF52EEF030C1AF42E21
:101DE600F12EF82E0C18F82EB12F80306F06F00069
:101DF6008030013A70020318022F0430EF00803061
:101E0600043AF00080306F06700203180C2F013080
:101E1600EF008C1AB02F9F2FD0302200E500023041
:101E2600E6000030E70080310E228831700821007C
:101E3600E6008031AF27883170082000A0007008C6
:101E46002100E6000230E7008031DF268831D030FD
:101E56002200E5000130E6000030E70080310E2266
:101E6600883170082100E6008031AF27883170087C
:101E76002000C80070082100E6000130E70080312C
:101E8600DF268831D0302200E5000430E60000303D
:101E9600E70080310E22883170082100E60080318B
:101EA600AF27883170082000EA0070082100E6009C
:101EB6000430E7008031DF268831D0302200E5008B
:101EC6000530E6000030E70080310E2288317008C8
:101ED6002100E6008031AF27883170082000E90034
:101EE60070082100E6000530E7008031DF268831E2
:101EF600D0302200E5000630E6000030E7008031F1
:101F06000E22883170082100E6008031AF27883123
:101F160070082000E80070082100E6000630E7009F
:101F26008031DF268831B02FA025B02F2B24B02F8B
:101F360001302100E100B02F20006F08013A03199B
:101F46000F2F6F08023A0319972F6F08033A0319E8
:101F5600992F6F08043A03199B2F882E20000C181E
:061F6600B52FB12F0800A9
:101F6C00242501302300A2008031162088310C304A
:101F7C002300A20080311620883101302200D100CC
:101F8C000830D2003A30D30080313D238831023002
:101F9C002200E5000130E6000430F2002000550874
:101FAC00F000F10172080319DF2FF035F10DFF3E3F
:101FBC00D92FD73070072200E7009430713DE8002C
:101FCC000230E7070030E83D8031D4228831080028
:101FDC0012001E00F003031DEE2FF103031DEE2F64
:021FEC000800EB
:1020000020002008A1004808AA00D0302200E500E6
:102010000130E6000030E70080310E229031700878
:102020002100E6008031AF27903170082000C80001
:102030001A30FC00F830FD00FD0B1C28FC0B1C289E
:102040000000D0302200E5000230E6000030E7005A
:1020500080310E22903170082100E6008031AF27D8
:10206000903170082000A0001A30FC00F830FD000C
:0C207000FD0B3828FC0B3828000008008D
:10207C0020001C149C14F9309B008031CF26903129
:10208C0020001C149C14F9309B008031D027903117
:10209C0020001C149C14F9309B008031D8279031FF
:1020AC0020001C149C14F9309B008031E0279031E7
:1020BC008031E82790318031D72690318031C0278C
:0A20CC0090318031C82790310800E0
:1020D60020005508013A031D74282100E201E3019E
:1020E600A92820005508023A031D7E28A9302100A0
:1020F600E200E301A92820005508033A031D8928B8
:1021060052302100E2000130E300A92820005508E2
:10211600043A031D9428FB302100E2000130E3005D
:10212600A92820005508053A031D9F2802302100E2
:10213600E2000230E300A92820005508063A031DF4
:10214600A92809302100E2000230E3000030200017
:102156002002031CB528013020020318B5282100EF
:10216600E101DF29013020002002031CC2280230D1
:1021760020020318C22801302100E100DF290230C5
:1021860020002002031CCF28033020020318CF288A
:1021960002302100E100DF29033020002002031C69
:1021A600DC28043020020318DC2803302100E1007B
:1021B600DF29043020002002031CE9280530200214
:1021C6000318E92804302100E100DF29053020004A
:1021D6002002031CF628063020020318F6280530D4
:1021E6002100E100DF29063020002002031C03291C
:1021F600073020020318032906302100E100DF29F9
:10220600073020002002031C102908302002031882
:10221600102907302100E100DF29083020002002C4
:10222600031C1D290930200203181D29083021002E
:10223600E100DF29093020002002031C2A290A3088
:10224600200203182A2909302100E100DF290A307B
:1022560020002002031C37290B30200203183729DF
:102266000A302100E100DF290B3020002002031C88
:1022760044290C302002031844290B302100E100C8
:10228600DF290C3020002002031C51290D302002CA
:10229600031851290C302100E100DF290D30200000
:1022A6002002031C5E290E30200203185E290D3021
:1022B6002100E100DF290E3020002002031C6B29DB
:1022C6000F30200203186B290E302100E100DF29B0
:1022D6000F3020002002031C78291030200203183A
:1022E60078290F302100E100DF291030200020027C
:1022F600031C85291130200203188529103021007E
:10230600E100DF29113020002002031C922912303F
:1023160020020318922911302100E100DF29123032
:1023260020002002031C9F291330200203189F2936
:1023360012302100E100DF29133020002002031CA7
:10234600AC29143020020318AC2913302100E10017
:10235600DF29143020002002031CB9291530200281
:102366000318B92914302100E100DF2915302000B7
:102376002002031CC629163020020318C629153070
:102386002100E100DF29163020002002031CD3299A
:10239600173020020318D32916302100E100DF2967
:1023A600173020002002031CDF29183020020318F2
:1023B600DF2917302100E1002000EF0106306F020F
:1023C60003186E2A5508003A031D122AA030210070
:1023D600E4000030E50020006F082100E407031840
:1023E600E50A0730F0000030F1006108F400F5015D
:1023F6008031762390312F30F0079430F13D6F080D
:10240600700784000030713D85000008F00021004F
:102416006408860065088700700881006B2A200022
:102426005508033C031C482AA0302100E400003074
:10243600E50020006F082100E4070318E50AA03034
:102446002200E50021006108F0000730F400803129
:10245600DB2190317008210062072200E600710836
:102466002100633D2200E70020006F082200E607F6
:102476000030E73D80310E2290312100640886004D
:1024860065088700700881006B2A2100A030E400EF
:102496000030E50020006F082100E4070318E50A74
:1024A600A0302200E50020006F082100620722000C
:1024B600E60000302100633D2200E70080310E2255
:1024C6009031210064088600650887007008810045
:0E24D6002000EF0AE129803103249031080034
:1024E4000E2623008C018D018E01333021008C00D7
:1024F4008E010E088D0022008E010E088D000D083D
:102504008C008031F0279031A0302200E50010309B
:10251400E6000230E70080310E229031700820007E
:10252400D5007008063C0318972A3E200020883105
:10253400B627903188312D2690316B202000200859
:10254400A1004808AA000C18C02A883183269031BB
:10255400A0302200E5001030E6000230E700200041
:1025640055082200E800803154229031002088313F
:10257400B627903188312D2690316B2020002A080F
:1025840048060319CB2A8831B627903188312D2685
:1025940090312000210820060319D72A8831B62754
:1025A400903188312D2690316B200020A52AD92A1C
:102C1C0047308400953085004B30F0000130F100D6
:102C2C0020308600003087008831EE279031D2307A
:102C3C008400953085003B30F0000130F100A0306D
:102C4C008600003087008831EE279031FC308400FC
:102C5C008F3085000430F0000130F1006B308600BD
:102C6C00003087008831EE279031F73084008F30A8
:102C7C0085000530F0000130F100DB3086000030BB
:0A2C8C0087008831EE279031080020
:0A1FEE004D3445344E3455340034B0
:041FF8007634003407
:041FFC005E3400341B
:1025BA0031342E34303461346D342D343134613455
:1025CA006D34003400340034003432342E34313463
:1025DA0061346D342D34323461346D340034003456
:1025EA000034003433342E34323461346D342D34B3
:1025FA00333461346D3400340034003400343434FC
:10260A002E34333461346D342D34343461346D34C2
:10261A00003400340034003435342E343434613418
:10262A006D342D34353461346D3400340034003463
:10263A00003436342E34353461346D342D34363426
:10264A0061346D34003400340034003437342E34AD
:10265A00363461346D342D34373461346D3400349A
:10266A0000340034003438342E34373461346D3455
:10267A002D34383461346D3400340034003400347D
:10268A0039342E34383461346D342D34393461346C
:10269A006D340034003400340034313430342E3494
:1026AA00393461346D342D343134303461346D341D
:1026BA0000340034313431342E343134303461341E
:1026CA006D342D343134313461346D340034313465
:1026DA0032342E343134313461346D342D34313462
:1026EA00323461346D340034313433342E3431347D
:1026FA00323461346D342D34313470346D340034F5
:10270A000034313434342E34313470346D342D3451
:10271A00323470346D34003400340034313435349A
:10272A002E34323470346D342D34333470346D3485
:10273A00003400340034313436342E3433347034B7
:10274A006D342D34343470346D3400340034003434
:10275A00313437342E34343470346D342D343534C6
:10276A0070346D34003400340034313438342E344B
:10277A00353470346D342D34363470346D3400345D
:10278A0000340034313439342E34363470346D34F4
:10279A002D34373470346D3400340034003432341C
:1027AA0030342E34373470346D342D343834703438
:1027BA006D34003400340034323431342E34383439
:1027CA0070346D342D34393470346D34003400343F
:1027DA000034323432342E34393470346D342D347A
:1027EA003134303470346D3400340034323433349C
:1027FA002E343134303470346D342D343134313434
:10280A0070346D340034323434342E34313431344B
:10281A0070346D342D343134323470346D340034C4
:10282A00323435342E3445347834693474340034CF
:10283A0000340034003400340034003400340034EE
:10284A0000340034003400340034003400340034DE
:04285A000034003412
:10285E0000340034003400340034003400340034CA
:10286E0000340034003400340034003400340034BA
:10287E0000340034003400340034003400340034AA
:10288E00003400340034003400340034003400349A
:10289E00003400340034003400340034003400348A
:1028AE00003400340034003400340034003400347A
:1028BE000034003401340034003400340034003469
:1028CE000034033400340034003400340034013456
:1028DE00033400340034013400340034023405343F
:1028EE00003400340234013400340434073400342C
:1028FE000134043402340034073407340034023413
:10290E0004340434003408340434033404340234FC
:10291E0002340034093404340034063401340234F1
:10292E0000340734033400340834003400340034E7
:10293E0005340034003404340034033400340234DB
:10294E0002340034013404340634003401340434C7
:10295E0000340034053404340034003406340234B8
:10296E00033407340234003401340334053406349E
:10297E0006340034003401340134003400340034A1
:10298E000034003400340034003400340034003499
:10299E000034003400340034003400340034003489
:1029AE0030342E34503472346534733465347434A8
:1029BE002034303400340034003400340034003419
:1029CE0031342E3450347234653473346534743487
:1029DE0020343134003400340034003400340034F8
:1029EE0032342E3450347234653473346534743466
:1029FE0020343234003400340034003400340034D7
:102A0E0033342E3450347234653473346534743444
:102A1E0020343334003400340034003400340034B5
:102A2E0034342E3453346534743420343134003419
:102A3E0000340034003400340034003400340034E8
:102A4E0035342E34533465347434203432340034F7
:102A5E0000340034003400340034003400340034C8
:102A6E0036342E34533465347434203433340034D5
:102A7E0000340034003400340034003400340034A8
:022A8E00003412
:022A9000003410
:102A92005034413454345434453452344E34003476
:022AA2000034FE
:102AA400443465346634613475346C34743420349D
:0E2AB400503472346534733465347434003435
:102AC200433461346E346E346F34743420346D3474
:0C2AD2006F3464346934663479340034A5
:022ADE000034C2
:062AE00055343A340034C5
:062AE60042343A340034D2
:062AEC0057343A340034B7
:062AF20056343A340034B2
:022AF8000034A8
:062AFA0052343A340034AE
:062B000047343A340034B2
:102B060045346E34743465347234203448346F344A
:082B160075347234733400348D
:022B1E00003481
:022B200000347F
:022B220000347D
:102B240031342E34543469346D3465340034003413
:102B340000340034003400340034003400340034F1
:102B440032342E345034723465347334653474340E
:102B540000340034003400340034003400340034D1
:102B640033342E344534643469347434203450346A
:102B7400723465347334653474340034003400348E
:102B840034342E34453478346934743400340034A5
:102B94000034003400340034003400340034003491
:0E2BA4000034003400340034003400340034B7
:0E2BB2000034003400340034003400340034A9
:102BC00045346E3474346534723420346D346F346B
:082BD0006E34743468340034E3
:102BD80045346E347434653472342034443461348A
:062BE80074346534003472
:102BEE0045346E3474346534723420344D34693463
:062BFE006E347334003454
:102C040045346E3474346534723420347934653424
:062C14006134723400344B
:020000040001F9
:04000E00E43E031EAB
:00000001FF
