:020000004E2F81
:10000600073084000008000883120313F000701103
:06001600700880000800E4
:10001C00831203132008930083161418172800006A
:0A002C00122883121308F0000800E8
:06003600000000000800BC
:10003C00073084000008000883120313F000F0104E
:06004C00700880000800AE
:0E0052008316031325088A0024088200080084
:0E0060008316031343088312A0000E2008002D
:10006E00831603134408F2000130F0000030F10053
:10007E00720803194728F00DF10D7010FF3E40284D
:10008E004308F0050030F105700871040319522879
:0A009E000130F0005328F0010800C3
:1000A80083160313C401C4010830440203186228EC
:1000B80044082F3E84008001C40A58282030430297
:1000C800031C9C2843087F3C031C9C28C40108305F
:1000D800440203189C2820304302F300F401031C57
:1000E800F4030330F2007308F0007408F10072089A
:1000F80003198328F00DF10D7010FF3E7C28440889
:10010800F0070318F10A4530F0070B300318013ED9
:10011800F1077008A4007108A50029208A110A12A5
:10012800F00044082F3E840070088000C40A6B2841
:020138000800BD
:10013A00831203137008F100F0010830FC00710803
:10014A00F40C0318AC28FC0BA528F10100340310A9
:10015A00B128F40C0318F107F10CF00CFC0BAE28D3
:02016A0008008B
:10016C0083160313C501C6018030C7000030C800D8
:10017C00470848040319E0281B201B2007151B20E7
:10018C001B208714831268108718D028681CCF286E
:10019C00D028CA28071DD72883164708C504480845
:1001AC00C6041B201B201E2083168710C80CC70CEE
:1001BC00C813BE2807151B201B2043084404031931
:1001CC00EA280320831607111B201B208714831297
:1001DC0068108718F528681CF428F528EF281B20D0
:1001EC001B201E20831687101B201B200320831628
:0801FC0007114508F00008009E
:10020400013083160313C6000030C7008030C400D9
:10021400C50144084504031937291B201B201B2052
:100224001B201E20831687101B201B204408430517
:10023400F00000304505F100700871040319242909
:10024400071527290320831607111B201B20871459
:100254008312681087183229681C312932292C2905
:100264008316C50CC40CC5130B29C601C7011B207A
:100274001B201E20831687101B201B2007151B2004
:100284001B201B201B2087148312681087184E29FB
:10029400681C4D294E2948298316C601C7011B2015
:1002A4001B208312071D5829831646141B201B206C
:1002B4001B201B201B201B201B201B201B201B2062
:1002C4001B201B201B201B201B201B201E208316F1
:0E02D40087100320831607114608F00008006B
:1002E2008316031307151B201B2087141B201B20BA
:1002F2000320831607111B201B201E208316871044
:020302000800F1
:100304000320831607111B201B20871483126810F7
:1003140087189029681C8F2990298A291B201B2063
:100324001B201B201B201B201B201B2083160715B2
:060334001B201B20080045
:10033A0083160313BB0171210730F2003908F0005C
:10034A003A08F10072080319AF29F10CF00CF11305
:10035A00FF3EA8290E30F00570083804C3000221B8
:10036A00FF303905C3000221712101303804C3006E
:10037A000221C301C401B6207008BB0082213B08D8
:04038A00F000080077
:10038E00831603133808BB00BF013908BD000730C0
:10039E003907F0000030B91BFF30F1000318F10AE5
:1003AE007008BE00C001C101C2013A08C30054204A
:1003BE003803BC00831236088316BC073D08C10003
:1003CE0080304106F00080303E06700203186E2C1D
:1003DE0080304106F0008030003A7002031C6B2C16
:1003EE0080304106F0008030093A700203186B2C01
:1003FE000730BF003808C20080304206F00080305F
:10040E00303A700203186B2C80304206F0008030B8
:10041E00003A70020318142ABF038030FF3AF0002E
:10042E0080304206700203188F2A80304206F00098
:10043E008030083A700203188F2A01303B02F10017
:10044E00F201031CF2030030BB1BFF30F2078030B9
:10045E007206F0008030C21B7F307002031D392AF5
:10046E004208710203188F2A80304206F000803055
:10047E003C06700203188F2A40082F3E84000008A5
:10048E00C3003F08C4003720700803196E2A0630D7
:10049E00F0004108F4009D207008373EF2008316EC
:1004AE004208073CF0007008F1000130F0007108BE
:1004BE000319652AF00D7010FF3E5F2A7208840042
:1004CE000008F00472088400700880008E2A06303E
:1004DE00F0004108F4009D207008373EF2008316AC
:1004EE004208073CF0007008F1000130F00071087E
:1004FE000319852AF00D7010FF3E7F2AF00972084D
:10050E0084000008F0057208840070088000BF03A4
:10051E008030073AF0008030420670020318ED2A50
:10052E0080304206F0008030103A70020318ED2A37
:10053E0001303B02F100F201031CF2030030BB1B41
:10054E00FF30F20780307206F0008030C21B7F3021
:10055E007002031DB42A420871020318ED2A80307E
:10056E004206F00080303C0670020318ED2A400867
:10057E002F3E84000008C3003F08C40037207008D7
:10058E000319EC2A0630F0004108F4009D203730A4
:10059E00F007700AF200083083164202F00070086D
:1005AE00073CF0007008F1000130F00071080319EB
:1005BE00E42AF00D7010FF3EDE2A72088400000857
:1005CE00F0047208840070088000BF0380300F3A78
:1005DE00F00080304206700203184C2B8030420629
:1005EE00F0008030183A700203184C2B01303B0299
:1005FE00F100F201031CF2030030BB1BFF30F207C7
:10060E0080307206F0008030C21B7F307002031DF6
:10061E00122B4208710203184C2B80304206F00058
:10062E0080303C06700203184C2B40082F3E84008D
:10063E000008C3003F08C4003720700803194B2B75
:10064E000630F0004108F4009D203730F0070230EC
:10065E007007F200103083164202F0007008073C5B
:10066E00F0007008F1000130F00071080319432BFF
:10067E00F00D7010FF3E3D2B720884000008F00450
:10068E007208840070088000BF038030173AF000B3
:10069E008030420670020318AB2B80304206F00009
:1006AE008030203A70020318AB2B01303B02F10070
:1006BE00F201031CF2030030BB1BFF30F207803047
:1006CE007206F0008030C21B7F307002031D712B4A
:1006DE00420871020318AB2B80304206F0008030C6
:1006EE003C0670020318AB2B40082F3E8400000816
:1006FE00C3003F08C400372070080319AA2B063028
:10070E00F0004108F4009D203730F00703307007E9
:10071E00F200183083164202F0007008073CF00019
:10072E007008F1000130F00071080319A22BF00DD2
:10073E007010FF3E9C2B720884000008F0047208B3
:10074E00840070088000BF0380301F3AF0008030B4
:10075E004206700203180A2C80304206F0008030E8
:10076E00283A700203180A2C01303B02F100F20104
:10077E00031CF2030030BB1BFF30F2078030720601
:10078E00F0008030C21B7F307002031DD02B420858
:10079E00710203180A2C80304206F00080303C06AD
:1007AE00700203180A2C40082F3E84000008C30074
:1007BE003F08C400372070080319092C0630F000DA
:1007CE004108F4009D203730F00704307007F20026
:1007DE00203083164202F0007008073CF0007008CB
:1007EE00F1000130F00071080319012CF00D7010AA
:1007FE00FF3EFB2B720884000008F0047208840090
:10080E0070088000BF038030273AF0008030420627
:10081E0070020318692C80304206F0008030303AA6
:10082E0070020318692C01303B02F100F201031C27
:10083E00F2030030BB1BFF30F20780307206F0006F
:10084E008030C21B7F307002031D2F2C42087102B4
:10085E000318692C80304206F00080303C0670028E
:10086E000318692C40082F3E84000008C3003F087F
:10087E00C400372070080319682C0630F0004108B8
:10088E00F4009D203730F00705307007F200283055
:10089E0083164202F0007008073CF0007008F10069
:1008AE000130F00071080319602CF00D7010FF3E3E
:1008BE005A2C720884000008F00472088400700834
:1008CE008000BF03C20A032AC00AC10AE729080032
:1008DE0083160313B801B901831207108316B801EA
:1008EE00083038020318782DB90106303902031882
:1008FE00722D3808003A031D9D2C0130C3003020A4
:10090E000630F00083163808F4009D207008373E3C
:10091E00F20083163908053CF000F101031CF103C7
:10092E007008720784000008C30030208316380850
:10093E00013A031DBB2C0230C30030200630F000FC
:10094E0083163808F4009D207008373EF200831697
:10095E003908053CF000F101031CF1037008720721
:10096E0084000008C300302083163808023A031DA5
:10097E00D92C0330C30030200630F000831638081F
:10098E00F4009D207008373EF20083163908053CAE
:10099E00F000F101031CF1037008720784000008D7
:1009AE00C300302083163808033A031DF72C043099
:1009BE00C30030200630F00083163808F4009D2066
:1009CE007008373EF20083163908053CF000F1013D
:1009DE00031CF1037008720784000008C300302066
:1009EE0083163808043A031D152D0530C300302038
:1009FE000630F00083163808F4009D207008373E4C
:100A0E00F20083163908053CF000F101031CF103D6
:100A1E007008720784000008C3003020831638085F
:100A2E00053A031D332D0630C30030200630F0008A
:100A3E0083163808F4009D207008373EF2008316A6
:100A4E003908053CF000F101031CF1037008720730
:100A5E0084000008C300302083163808063A031DB0
:100A6E00512D0730C30030200630F00083163808B1
:100A7E00F4009D207008373EF20083163908053CBD
:100A8E00F000F101031CF1037008720784000008E6
:100A9E00C300302083163808073A031D6F2D083027
:100AAE00C30030200630F00083163808F4009D2075
:100ABE007008373EF20083163908053CF000F1014C
:100ACE00031CF1037008720784000008C300302075
:100ADE008316B90A7C2C8312071407108316B80AE2
:040AEE00772C080059
:100AF20083160313B801B901B9010830390203188A
:100B0200972DB801063038020318952D0630F000F3
:100B12003908F4009D203730F00783163808700733
:0E0B220084008001B80A832DB90A7E2D0800D8
:100B300083160313B601B7013208013A031DA12D34
:100B400079253308B6003508840000080319DD2D27
:100B5000350884000008C300542083123608831629
:100B6000B7008312360883163607F1000030B61B33
:100B7000FF30F2000318F20A7F30F0008030720676
:100B80007002031DC52D7108FF3C0318D02D3608D7
:100B9000B8003408B900350884000008BA00C7213D
:100BA00080302F3AF0008030360670020318D92DBD
:0E0BB000DD2DB50A3708B607A32D6F24080007
:100BBE0083160313B5018312071005308316320214
:100BCE000318F72D3208B500053035020318F72D3E
:100BDE00C30130208316C30130208316B50AEB2DD6
:100BEE003308C300302083163408C3003020831628
:100BFE00B5013208350203180C2EC30130208316BE
:100C0E00C30130208316B50A002E83120714071075
:020C1E000800CC
:100C2000D03083160313B800B901BA019D217008B2
:100C30008312AC001A30FC00F830FD00FD0B1E2EB4
:100C4000FC0B1E2E0000D0308316B8000130B90016
:100C50000030BA009D2170088312AB001A30FC00EE
:100C6000F830FD00FD0B322EFC0B322E0000D03090
:100C70008316B8000230B9000030BA009D21700818
:100C80008312AA001A30FC00F830FD00FD0B462E3E
:080C9000FC0B462E00000800D9
:100C9800831603132008F000F00CF013F00CF01387
:100CA800F00CF013F00CF0130F30F0053030F007B3
:100CB8007008A7000F302005A8003030A8073A3088
:100CC800A90083126F088316AA00AA0CAA13AA0CFB
:100CD800AA13AA0CAA13AA0CAA130F30AA0530301B
:100CE800AA070F3083126F058316AB003030AB07AD
:100CF8003A30AC002108AD00AD0CAD13AD0CAD130E
:100D0800AD0CAD13AD0CAD130F30AD053030AD07E4
:100D18000F302105AE003030AE07AF0179253030F5
:100D2800B1008030D03AF0008030310670020318EC
:100D3800C32E0130B2003108B300B401A730B500AA
:100D480098253108053A031DB72E0B30FB002630D5
:100D5800FC005D30FD00FD0BAF2EFC0BAF2EFB0B36
:100D6800AF2E000000000330FC009730FD00FD0BA3
:100D7800BB2EFC0BBB2E00000000B103952E080013
:100D8800831603132008A30083126F088316A2009A
:100D980021088312E700D0308316B8000430B90068
:100DA8000030BA009D217008A0001A30FC00F8300D
:100DB800FD00FD0BDD2EFC0BDD2E0000D030B80051
:100DC8000530B9000030BA009D2170088312EF0089
:100DD8001A30FC00F830FD00FD0BF02EFC0BF02E55
:100DE8000000D0308316B8000630B9000030BA00D1
:100DF8009D217008A1001A30FC00F830FD00FD0BA1
:0A0E0800032FFC0B032F000008006D
:100E1200FF3083120313EC00FF30ED00FF30EE00D1
:100E2200FF300E30E9000030EA002030EB000030E5
:100E32008316871287110716831294014030831696
:080E42009400831294160800CD
:100E4A008316031398169030831298008316871717
:100E5A00071383128C1E342F1A08F0002E2F080055
:100E6A008316031387140715831268108718412FF6
:0A0E7A00681C402F412F3B2F080099
:100E840029208A110A128000840AA40A0319A50AD7
:080E9400F003031D422F0800CA
:100E9C00563083120313A1005330A2002D30A3004F
:100EAC004330A4004F30A5005230A6005030A700AC
:100EBC00A801023083168600870183129F018316D6
:100ECC009F013527092733308316990018152527DC
:100EDC008A15CC218A1101308316B2000430B3007C
:100EEC00B4012130B50098251026C4260B30FB0028
:100EFC002630FC005D30FD00FD0B822FFC0B822F99
:100F0C00FB0B822F00000000A601053026020318FF
:100F1C00942F8A1500208A11A60A8B2F4C268A2F13
:020F2C00962FFE
:1010000083160313A801A901AA0183122A08AE00BE
:101010002B08A9002C08AD008A1110268A1583160A
:10102000A70180302706F0008030093A70020318CB
:10103000CB290230AA008A1179258A1583122A0841
:10104000F000F00CF013F00CF013F00CF013F00CB7
:10105000F0130F30F00530307007F200720883167D
:10106000A90083122E08F000F00CF013F00CF0131E
:10107000F00CF013F00CF0130F30F0053030700767
:10108000F10071088316A80071087206031D51282B
:101090002A08B800B9012908BA008A11C7218A159F
:1010A00064282A08B8002708B9002808BA008A115D
:1010B000C7218A152A08B80008302702B900290874
:1010C000BA008A11C7218A15831236088316AA0727
:1010D0000F3083122A05F00030307007F2007208DA
:1010E0008316A9000F3083122E05F00030307007F0
:1010F000F10071088316A80071087206031D892883
:101100002A08B800B9012908BA008A11C7218A152E
:101110009C282A08B8002708B9002808BA008A11B4
:10112000C7218A152A08B80008302702B900290803
:10113000BA008A11C7218A158312360883162A0736
:10114000F0007008AA007008B800B9013A30BA007F
:101150008A11C7218A158312360AF0007008831697
:10116000AA0783122B08F000F00CF013F00CF01318
:10117000F00CF013F00CF0130F30F0053030700766
:10118000F20072088316A90083122908F000F00CFF
:10119000F013F00CF013F00CF013F00CF0130F3010
:1011A000F00530307007F10071088316A80071084F
:1011B0007206031DE4282A08B800B9012908BA00FC
:1011C0008A11C7218A15F7282A08B8002708B9000C
:1011D0002808BA008A11C7218A152A08B8000830E1
:1011E0002702B9002908BA008A11C7218A1583127B
:1011F00036088316AA070F3083122B05F000303013
:101200007007F20072088316A9000F3083122905B7
:10121000F00030307007F10071088316A8007108E3
:101220007206031D1C292A08B800B9012908BA0052
:101230008A11C7218A152F292A08B8002708B90062
:101240002808BA008A11C7218A152A08B800083070
:101250002702B9002908BA008A11C7218A1583120A
:10126000360883162A07F0007008AA007008B80034
:10127000B9013A30BA008A11C7218A158312360A99
:10128000F00070088316AA0783122C08F000F00CF7
:10129000F013F00CF013F00CF013F00CF0130F300F
:1012A000F00530307007F20072088316A90083122F
:1012B0002D08F000F00CF013F00CF013F00CF0130C
:1012C000F00CF0130F30F00530307007F1007108AA
:1012D0008316A80071087206031D77292A08B80032
:1012E000B9012908BA008A11C7218A158A292A0852
:1012F000B8002708B9002808BA008A11C7218A1542
:101300002A08B80008302702B9002908BA008A1153
:10131000C7218A15831236088316AA070F30831255
:101320002C05F00030307007F20072088316A90017
:101330000F3083122D05F00030307007F100710876
:101340008316A80071087206031DAF292A08B80089
:10135000B9012908BA008A11C7218A15C2292A08A9
:10136000B8002708B9002808BA008A11C7218A15D1
:101370002A08B80008302702B9002908BA008A11E3
:10138000C7218A15831236088316AA078A116F248B
:081390008A15A70A11280800C4
:1013980083160313B2010930B300B4018A11DF25A3
:1013A8008A1501308316B2000930B300B4018A11DE
:1013B800DF258A1502308316B2000930B300B40164
:1013C8008A11DF258A1503308316B2000930B3006D
:1013D800B4018A11DF258A1504308316B20009305A
:1013E800B300B4018A11DF258A1505308316B200CF
:1013F8000930B300B4018A11DF258A158316B201BA
:101408000B30B3000730B4008A11DF258A1501308C
:101418008316B2000B30B3000730B4008A11DF2501
:101428008A1502308316B2000B30B3000730B400BF
:101438008A11DF258A1503308316B2000B30B300FA
:101448000730B4008A11DF258A1504308316B200EC
:101458000B30B3000730B4008A11DF258A15053038
:101468008316B2000B30B3000730B4008A11DF25B1
:101478008A158316B2010C30B3000130B4008A110A
:10148800DF258A1501308316B2000C30B300013015
:10149800B4008A11DF258A1502308316B2000C3099
:1014A800B3000130B4008A11DF258A150330831692
:1014B800B2000C30B3000130B4008A11DF258A1560
:1014C80004308316B2000C30B3000130B4008A1126
:1014D800DF258A1505308316B2000C30B3000130C1
:1014E800B4008A11DF258A158316B2010A30B300C9
:1014F8000F30B4008A11DF258A1501308316B20037
:101508000A30B3000F30B4008A11DF258A15023083
:101518008316B2000A30B3000F30B4008A11DF25F9
:101528008A1503308316B2000A30B3000F30B400B6
:101538008A11DF258A1504308316B2000A30B300F9
:101548000F30B4008A11DF258A1505308316B200E2
:101558000A30B3000F30B4008A11DF258A158A11CA
:1015680079258A158A116F248A15B2010F30B300C4
:101578000130B4008A11DF258A1501308316B200C4
:101588000F30B3000130B4008A11DF258A1502300C
:101598008316B2000F30B3000130B4008A11DF2582
:1015A8008A1503308316B2000F30B3000130B4003F
:1015B8008A11DF258A1504308316B2000F30B30074
:1015C8000130B4008A11DF258A1505308316B20070
:1015D8000F30B3000130B4008A11DF258A150B30B3
:1015E800FB002630FC005D30FD00FD0BF92AFC0BEA
:1015F800F92AFB0BF92A000000008316B2010F300C
:10160800B300B4018A11DF258A1501308316B200B0
:101618000F30B300B4018A11DF258A150230831612
:10162800B2000F30B300B4018A11DF258A150330E8
:101638008316B2000F30B300B4018A11DF258A1572
:1016480004308316B2000F30B300B4018A11DF25CD
:101658008A1505308316B2000F30B300B4018A1121
:10166800DF258A150B30FB002630FC005D30FD00BD
:10167800FD0B3C2BFC0B3C2BFB0B3C2B0000000018
:02168800080058
:10168A0000340034003400340034003400340334AD
:10169A00803480348034803400340034803402341E
:1016AA00A034A034A03400340034003400340434AC
:1016BA0050345034F8345034F834503450340634FA
:1016CA0020347834A03470342834F034203406348A
:1016DA00C034C834103420344034983418340634B2
:1016EA0060349034A0344034A834903468340634DA
:1016FA00C0344034803400340034003400340334BD
:10170A0020344034803480348034403420340434EB
:10171A00803440342034203420344034803404343B
:10172A0000342034A8347034A83420340034063409
:10173A00003420342034F834203420340034063481
:10174A000034003400340034C0344034803403346C
:10175A00003400340034F8340034003400340634E1
:10176A0000340034003400340034C034C03403344C
:10177A0000340834103420344034803400340634C1
:10178A00703488349834A834C834883470340634B1
:10179A004034C0344034403440344034E0340434BB
:1017AA00703488340834103420344034F834063421
:1017BA00F834103420341034083488347034063441
:1017CA001034303450349034F83410341034063431
:1017DA00F8348034F03408340834883470340634E9
:1017EA00303440348034F0348834883470340634E9
:1017FA00F834883408341034203420342034063441
:10180A0070348834883470348834883470340634B8
:10181A0070348834883478340834103460340634A8
:10182A000034C034C0340034C034C034003403340B
:10183A000034C034C0340034C034403480340334FB
:10184A001034203440348034403420341034053489
:10185A0000340034F8340034F834003400340634E8
:10186A0080344034203410342034403480340534F9
:10187A007034883408341034203400342034063468
:10188A007034883408346834A834A8347034063480
:10189A007034883488348834F83488348834063488
:1018AA00F03488348834F03488348834F034063498
:1018BA007034883480348034803488347034063408
:1018CA00E03490348834883488349034E0340634F0
:1018DA00F83480348034F03480348034F834063478
:1018EA00F83480348034F0348034803480340634E0
:1018FA00703488348034B834883488347034063488
:10190A00883488348834F8348834883488340634FF
:10191A00E03440344034403440344034E034043419
:10192A00383410341034103410349034603406349F
:10193A0088349034A034C034A034903488340634C7
:10194A00803480348034803480348034F8340634EF
:10195A008834D834A834A83488348834883406348F
:10196A0088348834C834A83498348834883406349F
:10197A00703488348834883488348834703406342F
:10198A00F03488348834F034803480348034063437
:10199A007034883488348834A834903468340634EF
:1019AA00F03488348834F034A034903488340634DF
:1019BA00783480348034703408340834F03406348F
:1019CA00F8342034203420342034203420340634AF
:1019DA0088348834883488348834883470340634B7
:1019EA00883488348834883488345034203406342F
:1019FA00883488348834A834A834A8345034063457
:101A0A008834883450342034503488348834063446
:101A1A0088348834883450342034203420340634CE
:101A2A00F83408341034203440348034F83406341E
:101A3A00E03480348034803480348034E0340434B8
:101A4A0000348034403420341034083400340634EE
:101A5A00E03420342034203420342034E034043478
:101A6A0020345034883400340034003400340634CE
:101A7A00003400340034003400340034F8340634BE
:101A8A0080344034203400340034003400340434C8
:101A9A0000340034703408347834883478340634A6
:101AAA0080348034B034C83488348834F03406340E
:101ABA000034003470348834803488347034063406
:101ACA0008340834683498348834883478340634CE
:101ADA000034003470348834F83480347034063476
:101AEA00303448344034E0344034403440340634EE
:101AFA0000347834883488347834083470340634BE
:101B0A0080348034B034C834883488348834063415
:101B1A0040340034C034403440344034E034043477
:101B2A0010340034303410341034903460340534B6
:101B3A00803480349034A034C034A03490340534D6
:101B4A00C03440344034403440344034E034043407
:101B5A0000340034D034A834A834883488340634A5
:101B6A0000340034B034C8348834883488340634B5
:101B7A00003400347034883488348834703406343D
:101B8A0000340034F0348834F0348034803406343D
:101B9A00003400346834983478340834083406340D
:101BAA0000340034B034C83480348034803406348D
:101BBA00003400347034803470340834F03406341D
:101BCA0040344034E034403440344834303406340D
:101BDA0000340034883488348834983468340634BD
:101BEA00003400348834883488345034203406343D
:101BFA00003400348834A834A834A8345034063465
:101C0A000034003488345034203450348834063454
:101C1A000034003488348834783408347034063414
:101C2A0000340034F834103420344034F8340634A4
:101C3A002034403440348034403440342034043436
:101C4A008034803480348034803480348034023468
:101C5A0080344034403420344034403480340434B6
:101C6A0000340034003468349034003400340634CC
:101C7A0060349034903460340034003400340534D5
:04400E00F42F000784
:00000001FF
