:03000000020800F3
:0C080000787FE4F6D8FD758137020847C8
:0E0ABA00535620434F52500054696D653A0068
:0B0AC800011600060B86898CC6C9CC05
:10096500EFD3943B400674242FFF803AEFD39431A4
:100975004006741E2FFF802EEFD39427400674186F
:100985002FFF8022EFD3941D400674122FFF80168F
:10099500EFD394134006740C2FFF800AEFD394090C
:0709A500400474062FFF223D
:10090E00E52F645470507F807EA8120AAFC298857E
:10091E009913AD137FC61209F17F807E96120AAF2E
:10092E00C2987D2E7FC8120A61859914AD147FC9B5
:10093E001209F17F807E96120AAFC2987D2E7FCB70
:10094E00120A61859912AD127FCC1209F17F407E99
:07095E0042120AAFC2982209
:1009AC00758920758DFD759850D28E120A977BFF34
:1009BC007A0A79BA7534007535077F80120A2F12BE
:1009CC000AAB120AAB7F01120A7F7BFF7A0A79C24B
:1009DC007534007535057FC0120A2F85992FC29882
:0509EC0012090E80F667
:100A97007F38120A7F7F06120A7F7F0C120A7F7F38
:040AA70001020A7FBF
:100A7F008FA0D283C284C2857F7D7E00120AAFC24F
:080A8F00837F7D7E00020AAFA7
:100A61008D37120A7F8537A0D285D283C2847F7DDC
:0E0A71007E00120AAFC2837F7D7E00020AAFB4
:080A2F008F308B318A328933CC
:100A3700E4F536C3E5369535E49534501CE53025A5
:100A470036FFAB31AA32A933853682758300120887
:090A57008CFD120A61053680DAFB
:010A60002273
:0209F1008F3045
:1009F300ED75F06484ABF07A007C007D0AAF037E72
:100A0300001208B98F827E00AF037C007D0A1208B2
:100A1300B98C318D32AF82EF2430FDAF30120A61D1
:0C0A2300E53004FFE5322430FD020A61DA
:040AAB007FE87EFD65
:0B0AAF00EF1FAC0670011E4C70F62219
:0A0AD400120AAB7FE87EFD020AAFB4
:10080C000209ACE493A3F8E493A34003F68001F24D
:10081C0008DFF48029E493A3F85407240CC8C333ED
:10082C00C4540F4420C8834004F456800146F6DFBC
:10083C00E4800B0102040810204080900AC8E47E7A
:10084C00019360BCA3FF543F30E509541FFEE493B1
:10085C00A360010ECF54C025E060A840B8E493A378
:10086C00FAE493A3F8E493A3C8C582C8CAC583CAA3
:10087C00F0A3C8C582C8CAC583CADFE9DEE780BE5B
:010AD3000022
:10088C00BB010CE58229F582E5833AF583E0225021
:10089C0006E92582F8E622BBFE06E92582F8E2226B
:0D08AC00E58229F582E5833AF583E4932285
:1008B900BC000BBE0029EF8DF084FFADF022E4CC23
:1008C900F875F008EF2FFFEE33FEEC33FCEE9DECEC
:1008D900984005FCEE9DFE0FD5F0E9E4CEFD22ED32
:1008E900F8F5F0EE8420D21CFEADF075F008EF2F7C
:1008F900FFED33FD4007985006D5F0F222C398FD6D
:050909000FD5F0EA2209
:00000001FF
