:1000000079C200009BC2000099C2000097C20000A4
:1000100095C2000093C2000091C200008FC2000090
:100020008DC200008BC2000089C2000087C20000A0
:1000300085C2000083C2000081C200007FC20000B0
:100040007DC200007BC2000079C2000077C20000C0
:1000500075C2000073C2000071C200006FC20000D0
:100060006DC200006BC2000069C2000067C20000E0
:1000700065C2000063C2000061C200005FC20000F0
:100080005DC200005BC2000059C2000057C2000000
:1000900055C2000053C2000051C200004FC2000010
:1000A0004DC200004BC2000049C2000047C2000020
:1000B00045C2000043C2000041C200003FC2000030
:1000C0003DC200003BC2000039C2000037C2000040
:1000D00035C2000033C2000031C200002FC2000050
:1000E0002DC200002BC2000029C2000027C2000060
:1000F00025C2000023C2000021C200001FC2000070
:100100001DC200001BC2000019C2000017C200007F
:1001100015C2000013C2000011C200000FC200008F
:100120000DC200000BC2000009C2000007C200009F
:1001300005C2000003C2000001C20000FFC10000B0
:10014000FDC10000FBC10000F9C10000F7C10000C3
:10015000F5C10000F3C10000F1C10000EFC10000D3
:10016000EDC10000EBC10000E9C10000E7C10000E3
:10017000E5C10000E3C10000E1C10000DFC10000F3
:10018000DDC10000DBC10000D9C10000D7C1000003
:10019000D5C10000D3C10000D1C10000CFC1000013
:1001A000CDC10000CBC10000C9C10000C7C1000023
:1001B000C5C10000C3C10000C1C10000BFC1000033
:1001C000BDC10000BBC10000B9C10000B7C1000043
:1001D000B5C10000B3C10000B1C10000AFC1000053
:1001E000ADC10000ABC10000A9C10000A7C1000063
:1001F000A5C1000000000000000000038080808096
:1002000000008002A0A0A000000000045050F850A0
:10021000F85050062078A07028F02006C0C81020A2
:10022000409818066090A040A8906806C0408000E2
:100230000000000320408080804020048040202077
:10024000204080040020A870A8200006002020F88C
:100250002020000600000000C0408003000000F8DD
:10026000000000060000000000C0C00300081020CD
:1002700040800006708898A8C888700640C040403A
:100280004040E004708808102040F806F810201064
:100290000888700610305090F8101006F880F008AA
:1002A00008887006304080F088887006F88808104A
:1002B000202020067088887088887006708888786A
:1002C0000810600600C0C000C0C0000300C0C0002D
:1002D000C040800310204080402010050000F8003E
:1002E000F80000068040201020408005708808102B
:1002F0002000200670880868A8A870067088888882
:10030000F8888806F08888F08888F00670888080F1
:1003100080887006E09088888890E006F88080F0F9
:100320008080F806F88080F080808006708880B831
:1003300088887006888888F888888806E040404069
:100340004040E00438101010109060068890A0C063
:10035000A0908806808080808080F80688D8A8A831
:10036000888888068888C8A89888880670888888B9
:1003700088887006F08888F0808080067088888879
:10038000A8906806F08888F0A09088067880807031
:100390000808F006F8202020202020068888888879
:1003A000888870068888888888502006888888A869
:1003B000A8A85006888850205088880688888850C9
:1003C00020202006F80810204080F806E080808079
:1003D0008080E0040080402010080006E0202020FB
:1003E0002020E004205088000000000600000000EB
:1003F0000000F806804020000000000400007008A3
:10040000788878068080B0C88888F00600007088F8
:1004100080887006080868988888780600007088C8
:10042000F8807006304840E04040400600788888F8
:10043000780870068080B0C8888888064000C04070
:100440004040E0041000301010906005808090A0C3
:10045000C0A09005C04040404040E0040000D0A84B
:10046000A88888060000B0C88888880600007088C0
:10047000888870060000F088F08080060000689888
:10048000780808060000B0C88080800600007080F0
:100490007008F0064040E040404830060000888880
:1004A000889868060000888888502006000088A880
:1004B000A8A85006000088502050880600008888B0
:1004C000780870060000F8102040F80620404080B0
:1004D00040402004808080808080800280404020D6
:1004E000404080040000006890000006609090602A
:1004F0000000000511241FBECFEFCDBFDFE3DEBF3C
:1005000000E00CBF18BE19BE1ABE1BBE10E2A0E070
:10051000B0E2ECE8F2E100E00BBF02C007900D9200
:10052000AE3FB107D9F71BBE22E2AEEFB0E201C089
:100530001D92A333B207E1F7A7D0A6C661CD40E074
:1005400069E080E0D4D140E069E081E0D0D140E0D2
:1005500069E082E0CCD140E069E083E0C8D140E0CE
:1005600069E084E0C4D140E069E085E0C0D147E0C3
:100570006BE080E0BCD147E06BE081E0B8D147E0C0
:100580006BE082E0B4D147E06BE083E0B0D147E0BC
:100590006BE084E0ACD147E06BE085E0A8D141E0BE
:1005A0006CE080E0A4D141E06CE081E0A0D141E0CA
:1005B0006CE082E09CD141E06CE083E098D141E0C6
:1005C0006CE084E094D141E06CE085E090D14FE0B4
:1005D0006AE080E08CD14FE06AE081E088D14FE0B2
:1005E0006AE082E084D14FE06AE083E080D14FE0AE
:1005F0006AE084E07CD14FE06AE085E078D105D400
:1006000019D441E06FE080E072D141E06FE081E019
:100610006ED141E06FE082E06AD141E06FE083E0BB
:1006200066D141E06FE084E062D141E06FE085E0B7
:100630005ED12FEF87EA91E6215080409040E1F7AC
:1006400000C0000040E06FE080E051D140E06FE08A
:1006500081E04DD140E06FE082E049D140E06FE0C1
:1006600083E045D140E06FE084E041D140E06FE0BD
:1006700085E03DD12FEF87EA91E621508040904000
:10068000E1F700C000000895DCD581E08093010609
:100690008FEF8093E006E0E6F6E088E0818380E17A
:1006A000818380E2818390E89183E0E0F7E08283B8
:1006B00088E1858BE0ECF9E080E5808383E081834D
:1006C00084E08093A20078943ADF00EE16E0C1E067
:1006D0003ED02FEF83ED90E3215080409040E1F732
:1006E00000C00000F801C6838FE39FE10197F1F796
:1006F00000C00000C5838FE39FE10197F1F700C0C0
:100700000000C683E5CF0F931F93CF93DF937DD374
:1007100091D301E010E013C0B801CE0115D48AD303
:100720008FE193E00197F1F700C000002196C133FB
:10073000D10591F70F5F1F4F0930110519F0C1E086
:10074000D0E0EACFDF91CF911F910F91089520E083
:1007500030E240E050E06FE070E081E090E0E9D40A
:100760002FEF8FE493EC215080409040E1F700C0E0
:10077000000044E050E262E370E080E390E013D5D3
:100780002FEF87EA91E6215080409040E1F700C0CA
:100790000000B9DF42E550E264E170E080E390E000
:1007A00002D52FEF87EA91E6215080409040E1F793
:1007B00000C0000086E3EAE6F0E2A6E6B1E20190BE
:1007C0000D928A95E1F746E651E262E370E080E33C
:1007D00090E0E9D498DF40EA50E264E170E080E321
:1007E00090E0E1D42FEF87EA91E6215080409040DD
:1007F000E1F700C0000086E3EAE6F0E2A6E6B1E237
:1008000001900D928A95E1F746E651E264E170E0CD
:1008100080E390E0C8D477DF48EB50E264E170E019
:1008200080E390E0C0D42FEF87EA91E6215080402A
:100830009040E1F700C0000086E3EAE6F0E2A6E6B9
:10084000B1E201900D928A95E1F746E651E26AE045
:1008500070E080E390E0A7D456DF40ED50E264E121
:1008600070E080E390E09FD42FEF87EA91E621507B
:1008700080409040E1F700C0000086E3EAE6F0E245
:10088000A6E6B1E201900D928A95E1F746E651E2C3
:1008900065E070E080E390E086D435DF47EE50E21B
:1008A00064E170E080E390E07ED42FEF87EA91E688
:1008B000215080409040E1F700C0000086E3EAE666
:1008C000F0E2A6E6B1E201900D928A95E1F746E6E4
:1008D00051E261E070E080E390E065C408958093A8
:1008E000C309E0ECF9E082818823ECF708950F93C7
:1008F0001F93CF93DF93D82F062F142F88E0809378
:100900006606D53040F4CD2F80E0E9DF80E0E7DFF8
:10091000CF5FC530C9F7802FE2DF812FE0DFDD2315
:1009200041F0C0E080E0DBDF80E0D9DFCF5FCD13B6
:10093000F9CFE0E6F6E088E085838683DF91CF910A
:100940001F910F910895CF93DF93CEEFD0E226E36E
:1009500031E2DE011D921D921D921D92A217B30776
:10096000C9F79C01205231092036310510F5C90123
:10097000880F991F880F991F880F991FFC01EC5051
:10098000FE4F2EE131E2449150E060E070E0499387
:100990005993699379933196C217D307A1F7FC0154
:1009A000E550FE4FE491EE2321F080E08F5F8E133F
:1009B000FDCFDF91CF9108952F923F924F925F929A
:1009C0006F927F928F929F92AF92BF92CF92DF925F
:1009D000EF92FF920F931F93CF93DF93CDB7DEB7C4
:1009E000A097CDBFDEBF89879A877B01842F90E0D7
:1009F000AADF09851A850150110980911A21282F33
:100A000030E02B8F3C8F5901A00EB11EC701079615
:100A1000E816F9060CF0E1C10F2EFEEF8F2EF0E282
:100A20009F2EF02DC701880F991F8E0D9F1D880FD7
:100A3000991FAC01465C5E4D1A01DC01AA5CBE4DFB
:100A40002D01FC01E75CFE4DED83FE839C01285CDB
:100A50003E4D2B833C83AC01495C5E4D49835A83F8
:100A6000DC01A55CBE4DAF83B887FC01E05AFE4DAA
:100A7000EB87FC8729853A85285231092D873E87E7
:100A800049855A85405251094F87588B89859A85E7
:100A90004897898B9A8BA985BA855097AB8BBC8B6D
:100AA000E985FA853897ED8BFE8B87E090E09C0115
:100AB00049855A85241B350B2F8B388F5985598FC3
:100AC0008A858A8F66246394712C48C199230CF41B
:100AD000DA948830910580F5081719070CF064C185
:100AE0008A159B050CF05BC1D401EC90F12C0D2C08
:100AF00002C0F594E7940A94E2F7E0FE0CC0D2013C
:100B0000CC9073010F8C02C0EE0CFF1C0A94E2F72C
:100B1000EC28EC920CC073010F8C02C0EE0CFF1C91
:100B20000A94E2F7E094D201FC90EF20EC92DA9480
:100B3000E830F10560F02EC1E830F10548F50817FE
:100B400019070CF036C18A159B050CF037C1D4018A
:100B5000EC90F12C0D2C02C0F594E7940A94E2F786
:100B6000E0FE11C0EF8CF8A0B8E0EB0EF11CD30151
:100B700002C0AA0FBB1FEA94E2F77D01A981BA81E6
:100B8000FC90EF28EC92DA942830310560F02CC00C
:100B90002830310548F5081719070CF019C18A15D6
:100BA0009B050CF010C1D401EC90F12C0D2C02C06F
:100BB000F594E7940A94E2F7E0FE11C0EF8CF8A0F8
:100BC000B0E1EB0EF11CD30102C0AA0FBB1FEA94E7
:100BD000E2F77D01AB81BC81FC90EF28EC92DA94C6
:100BE0004830510560F02CC04830510548F50817D1
:100BF00019070CF078C08A159B050CF074C0D4015D
:100C0000EC90F12C0D2C02C0F594E7940A94E2F7D5
:100C1000E0FE11C0EF8CF8A0B8E1EB0EF11CD3019F
:100C200002C0AA0FBB1FEA94E2F77D01AD81BE812D
:100C3000FC90EF28EC92DA946830710560F02CC0DB
:100C40006830710548F5081719070CF04CC08A1573
:100C50009B050CF048C0D401EC90F12C0D2C02C087
:100C6000F594E7940A94E2F7E0FE10C0EF8CF8A048
:100C7000B0E2EB0EF11CD30102C0AA0FBB1FEA9435
:100C8000E2F77D01D101FC90EF28EC92DA94AD8D72
:100C9000BE8D189758F027C0AD8DBE8D189718F5EA
:100CA0000817190704F58A159B05ECF4D401EC909C
:100CB000F12C0D2C02C0F594E7940A94E2F7E0FEC3
:100CC00011C0EF8CF8A0B8E2EB0EF11CD30102C00A
:100CD000AA0FBB1FEA94E2F77D01AF81B885FC90B3
:100CE000EF28EC92DA940196AD8DBE8D1196AD8F02
:100CF000BE8F6F5F7F4F4F5F5F4F2F5F3F4F3196CC
:100D0000AF8DB8A11197AF8FB8A38033910509F0CB
:100D1000DDCEB4E08B0E911CE6E02E0E311CF6E029
:100D20004F0E511C2D813E812A5F3F4F2D833E8304
:100D30004B815C814A5F5F4F4B835C8389819A81E1
:100D4000069689839A83AF81B8851696AF83B88754
:100D5000EB85FC854E165F0609F43FC029853A8570
:100D600020333105B4F64D855E854D8F5E8F6F85DE
:100D7000788949895A892B893C89ED89FE89EF88D0
:100D8000F88C898D9A8D0F2EF7E0DF2EF02DEF8EE7
:100D9000F8A29CCE2830310508F405CF25CF2830A5
:100DA000310508F44DCF20CF2830310508F448CF65
:100DB0001BCF4830510508F46FCF42CF4830510562
:100DC00008F46ACF3DCF6830710508F48CCF64CF4A
:100DD0006830710508F487CF5FCF8B8D9C8DA0960E
:100DE000CDBFDEBFDF91CF911F910F91FF90EF90AC
:100DF000DF90CF90BF90AF909F908F907F906F903B
:100E00005F904F903F902F900895EBE3F1E28BE6D7
:100E100091E2DF0115971C9211961C9211961C927B
:100E200011961C9211961C9210823696E817F907BB
:100E300081F70895AF92BF92CF92DF92EF92FF9227
:100E40000F931F93CF93DF9388E080936606C0E0F3
:100E5000D0E00F2EF5E6AF2EF1E2BF2EF02D0F2ED3
:100E6000FFE5EF2EF1E2FF2EF02D0F2EF0E6CF2E54
:100E7000F6E0DF2EF02D5BC0209739F481E02FDD06
:100E8000F801BA9780812BDD14C0C130D10539F447
:100E900082E025DDF801B497808121DD14C0C230E5
:100EA000D10539F483E01BDDF8017E97808117DDE1
:100EB00014C0C330D10539F484E011DDF80178970E
:100EC00080810DDD14C0C430D10539F485E007DD23
:100ED000F8017297808103DD14C0C530D10539F463
:100EE00086E0FDDCF8013C978081F9DC12C0C63059
:100EF000D10539F487E0F3DCF80136978081EFDC27
:100F000008C0C730D10529F488E0E9DCF801808108
:100F1000E6DC015011090E151F0509F0ADCF88E080
:100F2000F601858386832196C830D10511F08501AD
:100F3000A3CFDF91CF911F910F91FF90EF90DF90A2
:100F4000CF90BF90AF900895CF93DF938930E8F4AE
:100F5000262F30E021503109F901EE0FFF1FDF018C
:100F6000A20FB31FAA0FBB1FAA5CBE4DC8E0D0E002
:100F7000C81BD10941E050E002C0440F551FCA957B
:100F8000E2F7FD019081492B4C9397EF980F983031
:100F9000F0F4262F30E021503109F901EE0FFF1F48
:100FA000DF01A20FB31FAA0FBB1FAA5CBE4DC0E199
:100FB000D0E0C81BD10941E050E002C0440F551FEA
:100FC000CA95E2F7FD019181492B11964C939FEE52
:100FD000980F9830F0F4262F30E021503109F901B4
:100FE000EE0FFF1FDF01A20FB31FAA0FBB1FAA5CEA
:100FF000BE4DC8E1D0E0C81BD10941E050E002C0BD
:10100000440F551FCA95E2F7FD019281492B1296B4
:101010004C9397EE980F9830F0F4262F30E0215043
:101020003109F901EE0FFF1FDF01A20FB31FAA0F55
:10103000BB1FAA5CBE4DC0E2D0E0C81BD10941E095
:1010400050E002C0440F551FCA95E2F7FD0193819D
:10105000492B13964C939FED980F9830F0F4262F60
:1010600030E021503109F901EE0FFF1FDF01A20F1F
:10107000B31FAA0FBB1FAA5CBE4DC8E2D0E0C81BBD
:10108000D10941E050E002C0440F551FCA95E2F774
:10109000FD019481492B14964C9397ED980F98304D
:1010A000E8F470E061507109FB01EE0FFF1FDF01F2
:1010B000A60FB71FAA0FBB1FAA5CBE4D20E330E0EE
:1010C000281B310981E090E002C0880F991F2A9502
:1010D000E2F7FD019581892B15968C93DF91CF91D5
:1010E0000895EF92FF920F931F93CF93DF93EC013C
:1010F00088818823A1F0219600E010E00F2EFEEFFA
:10110000EF2EF0E2FF2EF02D90E01DDCF701848D34
:10111000958D080F191F89918111F6CF02C000E04B
:1011200010E0C801DF91CF911F910F91FF90EF90D8
:101130000895AF92BF92CF92DF92EF92FF920F93FA
:101140001F93CF93DF938B015A01E901813009F49A
:101150005CDE88818823D9F00F2EFEEFCF2EF0E2DF
:10116000DF2EF02D90E0EFDBF601848D7801E80EA4
:10117000F11CFF2024F04881B501C8011DDC0033BB
:1011800011052CF42196888187018111EBCF52DE65
:10119000DF91CF911F910F91FF90EF90DF90CF9053
:1011A000BF90AF9008958F929F92AF92BF92CF92CF
:1011B000DF92EF92FF920F931F93CF93DF938C01F7
:1011C000EB015A01CA018DDF0F5F1F4FCC24DD24D4
:1011D000C81AD90AC016D1063CF50F2EF0EEEF2E34
:1011E000F6E0FF2EF02D99249394892CF701858247
:1011F000950140E050E0B801892D9BDFF701968210
:101200001C161D0664F4E0E0F0E08FE39FE1019717
:10121000F1F700C000003196EC17FD07B1F701505F
:101220001109C016D10614F3DF91CF911F910F91D0
:10123000FF90EF90DF90CF90BF90AF909F908F90F6
:101240000895E0E5F0E0808182608083818181FF04
:10125000FDCF88ED84BF81E080934000E0E5F0E0C1
:1012600080818E7F8083808184608083818182FF02
:10127000FDCFE0E5F0E086818D7F8683E0E6F0E05B
:0C1280008081816080830895F894FFCF86
:10128C00454F42004C4544204D415452495820642E
:10129C006973706C61792077697468204D41583797
:1012AC0032313920636F6E74726F6C6C65642062BE
:1012BC007920586D656761207468726F7567682056
:1012CC005350492064656D6F6E7374726174696FED
:1012DC006E00582D706F73206368616E67652074A3
:1012EC00696D653A2035306D73004F6E6472656AB6
:1012FC0020426C617A656B2C207777772E6F6E6449
:10130C00726173686F76612D6175746F6D6174694C
:10131C007A6163652E7765626E6F64652E637A0001
:10132C00582D706F73206368616E67652074696DEA
:10133C00653A2032306D7300582D706F73206368DE
:10134C00616E67652074696D653A2031306D73008C
:10135C00582D706F73206368616E67652074696DBA
:10136C00653A20356D7300582D706F73206368617A
:0E137C006E67652074696D653A20316D7300EF
:00000001FF
