:100D3900D3EF9400EE9400400F7DFFDDFE7DE8DDEA
:080D4900FEEF1F70EB1E80E8B5
:010D5100227F
:100D52003132334134353642373839434F304D45DD
:060D62000000000000008B
:030E2E00011E00A2
:090E0100A2958294829682972248
:090E0A00C293C292C291C290226F
:090E1300D297D296D295D2942216
:1009C900120E13120E0A120E0140FBC290D293D2DC
:1009D90092D291120E014004E4FD8031C291D2936A
:1009E900D292D290120E0140047D018020C292D28F
:1009F90093D291D290120E0140047D02800FC293CE
:100A0900D291D292D290120E0140027D0320940419
:100A1900E4FE80132095047E01800C2096047E025A
:100A290080052097027E03ED25E025E02452F5821A
:100A3900E4340DF583E5822EF582E43583F583E40C
:020A490093FF19
:010A4B002288
:10094100E4F50FF51078117C00FD7BFF7A0D7962DB
:10095100FE7F061204811209C98F10E510C394307D
:10096100402CE510D394395025E50FC3951E501E38
:100971007411250FF8A6107FC0120E3C7B007A007F
:100981007911120C72120E0150FB050F80C8E5108F
:10099100B4451B120E0150FBE51160BA050F74112D
:1009A100250FF8E4F6751F01FB7A00791122E51095
:1009B100B44D0A120E0150FB1200038006E51064CB
:0809C1004F7093120A4C808E66
:100ACB00E4F50F1209C98F0FE50F6441600BE50FB9
:100ADB0064426005E50FB443117FC0120E3CAF0FAB
:100AEB00120E41120E01401980F9E50FB44D0A1296
:100AFB000E0150FB120DA58008E50FB44F03120A2F
:0E0B0B004C1209C9BF45BC120E0150FBAF0FC2
:010B190022B9
:100DB7008FA0C281D2827F027E00120D39C28222A9
:050E3C00C280020DB7A9
:050E4100D280020DB794
:100CDF007F107E00120D397F38120E3C7F80120E6E
:100CEF003C7F02120E3C7F06120E3C7F0C020E3C24
:100C72008B198A1A891BAB19AA1AA91B1204A7601D
:100C820013051BE51B7002051A14F91204A7FF12C3
:050C92000E4180E2228A
:100BE800456E746572207468652076616C75650061
:100BF800456E74657220646973706C617900535630
:100C08002D434F525000496E7469616C697A696E60
:080C180067000000000000006D
:030E3100011F009E
:100DA5007F01120E3C7F08120E3C7F46120DF302A6
:020DB50000003C
:060B1A008B0F8A10891107
:100B2000E4F512120D7DEF14FFEFD39512402FABB9
:100B30000FAA10A9118512827583001204C0FE8FBE
:100B4000827583001204C08512827583001204ED41
:0E0B50008F82758300EE1204ED05121F80CB1C
:010B5E002274
:100A4C0078097C007D007BFF7A0C791A7E007F068A
:100A5C00120481751E057F01120E3C7F80120E3C24
:100A6C007BFF7A0B79E8120C7212094178097C0031
:100A7C007D001205DB7B007A007909120B1A7F01CD
:100A8C00120E3C7F80120E3C7BFF7A0B79F8120C15
:100A9C0072120ACB8F087B007A007909120CBC7F8A
:100AAC00037E00120D39AF08120DF3E51FB401A639
:0F0ABC00E4F51FFB7A007909AD0812081780973F
:100B5F00120CDF120DC77F53120DF37BFF7A0C7946
:100B6F0006120C727FB87E0B120D397F01120E3CEC
:100B7F007BFF7A0C790E120C727FD07E07120D3923
:100B8F007F41120BA47F42120BA47F43120BA412BE
:050B9F000E0150FB22D5
:0E0DE5001209C9BF4FFA120B5F120A4C80F2BE
:0F0DC700759850438920758BFD758DFDD28E2256
:0E0DF3008F993099FDC2997F327E00020D3932
:100CBC008B0F8A108911AB0FAA10A9111204A7FF70
:100CCC006010120DF374012511F511E43510F510B7
:030CDC0080E4228F
:090E1C00C286D287D286C2872269
:020C2000AD071E
:100C2200E4FCC28674807E00A804088006CEA2E797
:100C320013CE13D8F8FFEDFBEF5B6003D38001C343
:080C42009287D2860CBC08DA8F
:010C4A002287
:0B0D6800120C20120D73AF01120C20C2
:0A0D7300C286D287D2862087FD22B7
:090E2500C286C287D286D2872260
:100D1D00E4FFFEC286D28630870D7480A806088057
:0B0D2D0002C313D8FC42070EBE08E80A
:010D38002298
:070E3500C286D287D286229B
:100CFF00AE07AA03A905120E1C120D68AF02120C43
:0E0D0F0020120D73120E257F0A7E00020D3990
:040C9700AA07A905FA
:100C9B00E4FF120E1CAF02120D68120E1CEA440187
:100CAB00FF120C20120D73120D1D120E35120E2594
:010CBB002216
:080817008B0F8A1089118D126C
:10081F007514A0E512B441087515007516108018EF
:10082F00E512B44208751500751620800BE512B459
:10083F004306751500751630E5126441600CE5121C
:10084F0064426006E5126443705BE4F513E513251B
:10085F0016FDE4FBAF14120CFF0513E513C394064A
:10086F0040EBE4F513AB0FAA10A911120D7DC3E5F0
:10087F00139FEE6480F8748098501EE5132516FDC3
:10088F00AB0FAA10A9118513827583001204C0FB48
:10089F00AF14120CFF051380CCE5132516FDAB1218
:0508AF00AF14120CFF64
:0108B4002221
:100BA400E4F5087509A0BF4107F50B750C10801416
:100BB400BF4208750B00750C208009BF4306750BF6
:100BC40000750C30E508250CFDAF09120C978F0A4F
:100BD400120DF30508E50AC394304007E50AD394DF
:030BE4003940E1B4
:010BE70022EB
:100636002A2A2A2A2A2A4D454E552A2A2A2A2A2A87
:10064600004D2D4D6F646520452D456E7465720015
:10065600456E7465722073656300536563206D751E
:1006660073742062653C363000456E746572206D89
:10067600696E004D696E206D7573742062653C3637
:100686003000456E7465722048727300487273209C
:100696006D7573742062653C323400456E74657204
:1006A6002044617900446179206D75737420626518
:1006B6003C3700456E746572204461746500446180
:1006C6007465206D7573742062653C333100456E28
:1006D600746572206D6F6E7468006D6F6E7468203D
:1006E6006D7573742062653C313200456E746572B7
:1006F60020796561720079656172206D7573742069
:1007060062653C39390044617465206E6F742073EC
:10071600657400200000000000000000004D4F4EF0
:1007260044415900000000545545534441590000C6
:10073600005745444E455344415900544855525379
:1007460044415900004652494441590000000053B3
:1007560041545552444159000053554E44415900A5
:0307660000000090
:060C4B007B007A0079171E
:100C51009000011204C0FE70071204A724D0FF22E5
:100C6100EE24D0540FFF1204A724D0C454F04FFF38
:010C71002260
:10000300751E027F80120E3C7BFF7A067936120C36
:10001300727FC0120E3C7BFF7A067947120C721274
:1000230009C9EF644D6003020396120E0150FB7E73
:10003300007F027D007B007A0079171205F87F01AB
:10004300120E3C7F80120E3C7BFF7A067956120C0F
:100053007212094178177C007D001205DB7B007A60
:10006300007917120769D3EF943CEE6480948040C3
:100073001A7F01120E3C7F80120E3C7BFF7A0679B9
:1000830060120C727FE87E03120D397B007A0079CF
:1000930017120769D3EF943CEE648094805090125A
:1000A3000C4BAB07E4FD7FD0120CFF7E007F027D7B
:1000B300007B007A0079171205F87F01120E3C7F4E
:1000C30080120E3C7BFF7A06796F120C7212094183
:1000D30078177C007D001205DB7B007A007917120C
:1000E3000769D3EF943CEE64809480401A7F011239
:1000F3000E3C7F80120E3C7BFF7A067979120C72DC
:100103007FE87E03120D397B007A007917120769A5
:10011300D3EF943CEE648094805090120C4BAB0769
:100123007D017FD0120CFF7E007F027D007B007A71
:100133000079171205F87F01120E3C7F80120E3CE6
:100143007BFF7A067988120C7212094178177C00BA
:100153007D001205DB7B007A007917120769D3EF64
:100163009418EE64809480401A7F01120E3C7F80C5
:10017300120E3C7BFF7A067992120C727FE87E03A3
:10018300120D397B007A007917120769D3EF94189F
:10019300EE648094805090120C4BAB077D027FD0AD
:1001A300120CFF7E007F027D007B007A007917121C
:1001B30005F87F01120E3C7F80120E3C7BFF7A060E
:1001C30079A1120C7212094178177C007D00120587
:1001D300DB7B007A007917120769D3EF9407EE648B
:1001E300809480401A7F01120E3C7F80120E3C7B6C
:1001F300FF7A0679AB120C727FE87E03120D397B0E
:10020300007A007917120769D3EF9407EE6480949C
:10021300805090120C4BAB077D037FD0120CFF7EF6
:10022300007F027D007B007A0079171205F87F01B9
:10023300120E3C7F80120E3C7BFF7A0679B9120CBA
:100243007212094178177C007D001205DB7B007A6E
:10025300007917120769D3EF941FEE6480948040EE
:100263001A7F01120E3C7F80120E3C7BFF7A0679C7
:10027300C4120C727FE87E03120D397B007A007979
:1002830017120769D3EF941FEE6480948050901285
:100293000C4BAB077D047FD0120CFF7E007F027DE9
:1002A300007B007A0079171205F87F01120E3C7F5C
:1002B30080120E3C7BFF7A0679D4120C721209412C
:1002C30078177C007D001205DB7B007A007917121A
:1002D3000769D3EF940CEE64809480401A7F011277
:1002E3000E3C7F80120E3C7BFF7A0679E0120C7283
:1002F3007FE87E03120D397B007A007917120769B4
:10030300D3EF940CEE648094805090120C4BAB07A7
:100313007D057FD0120CFF7E007F027D007B007A7B
:100323000079171205F87F01120E3C7F80120E3CF4
:100333007BFF7A0679F1120C7212094178177C005F
:100343007D001205DB7B007A007917120769D3EF72
:100353009463EE64809480401A7F01120E3C7F8088
:10036300120E3C7BFF7A0679FC120C727FE87E0347
:10037300120D397B007A007917120769D3EF946362
:10038300EE648094805090120C4BAB077D067FD0B7
:10039300020CFF7F01120E3C7F80120E3C7BFF7A22
:0D03A30007790C120C727FE87E03120D39F1
:0103B000222A
:030000000208B53E
:0C08B500787FE4F6D8FD7581270208FC6E
:1003B100E709F608DFFA8046E709F208DFFA803E2E
:1003C10088828C83E709F0A3DFFA8032E309F6081B
:1003D100DFFA8078E309F208DFFA807088828C8383
:1003E100E309F0A3DFFA806489828A83E0A3F60837
:1003F100DFFA805889828A83E0A3F208DFFA804C11
:1004010080D280FA80C680D4806980F280338010E7
:1004110080A680EA809A80A880DA80E280CA803350
:1004210089828A83ECFAE493A3C8C582C8CCC583C8
:10043100CCF0A3C8C582C8CCC583CCDFE9DEE78098
:100441000D89828A83E493A3F608DFF9ECFAA9F017
:10045100EDFB2289828A83ECFAE0A3C8C582C8CC6D
:10046100C583CCF0A3C8C582C8CCC583CCDFEADE86
:10047100E880DB89828A83E493A3F208DFF980CCE8
:1004810088F0EF60010E4E60C388F0ED2402B404E1
:100491000050B9F582EB2402B4040050AF23234588
:0604A100822390040173A8
:1004A700BB010689828A83E0225002E722BBFE0253
:0904B700E32289828A83E4932286
:1004C000BB010CE58229F582E5833AF583E02250F1
:1004D00006E92582F8E622BBFE06E92582F8E2223B
:0D04E000E58229F582E5833AF583E4932255
:1004ED00F8BB010DE58229F582E5833AF583E8F045
:1004FD00225006E92582C8F622BBFE05E92582C8F1
:02050D00F222D8
:10050F00E709F60870FA8046E709F20870FA803EAC
:10051F0088828C83E709F0A370FA807EE309F608DE
:10052F0070FA8076E309F20870FA806E88828C8305
:10053F00E309F0A370FA806289828A83E0A3F60848
:10054F0070FA805689828A83E0A3F20870FA804A93
:10055F0080D280FA80C680D4806580F2803180108E
:10056F0080A680EA809A80A880DA80E280CA8031F3
:10057F0089828A83ECFAE493A3C8C582C8CCC58369
:10058F00CCF0A3C8C582C8CCC583CC70E9800D89D7
:10059F00828A83E493A3F60870F9ECFAA9F0EDFBD5
:1005AF002289828A83ECFAE0A3C8C582C8CCC583AE
:1005BF00CCF0A3C8C582C8CCC583CC70EA80DD89D6
:1005CF00828A83E493A3F20870F980CE88F0ED2439
:1005DF0002B4040050C4F582EB2402B4040050BAF4
:0905EF00232345822390055F736C
:100D7D00E4FFFE1204A7600C0FEF70010E09E9707D
:050D8D00F20A80EF22D4
:100769008B198A1A891BAB19AA1AA91B1204A7FF8C
:10077900120D92500D7401251BF51BE4351AF51A5B
:1007890080E4D200AB19AA1AA91B1204A7FF642B93
:100799006004EFB42D1BAB19051BE51BAA1A7002E7
:1007A900051A14F91204A7642D6003D38001C392BA
:1007B90000E4F51CF51DAB19AA1AA91B1204A7FF21
:1007C900120DD65036AB19AA1AA91B1204A7FF336A
:1007D90095E0FEEF24D0FBEE34FFFAAE1CAF1D7C92
:1007E900007D0A120624EF2BF51DEE3AF51C740163
:1007F900251BF51BE4351AF51A80BB300006AE1C23
:0E080900AF1D8009C3E4951DFFE4951CFE227F
:1005F800EF4E6012EF60010EEDBB010B89828A831A
:10060800F0A3DFFCDEFA2289F05007F709DFFCA926
:0C061800F022BBFEFCF309DFFCA9F0227D
:1008C100020DE5E493A3F8E493A34003F68001F25B
:1008D10008DFF48029E493A3F85407240CC8C33338
:1008E100C4540F4420C8834004F456800146F6DF07
:1008F100E4800B0102040810204080900E2EE47E5B
:10090100019360BCA3FF543F30E509541FFEE493FB
:10091100A360010ECF54C025E060A840B8E493A3C2
:10092100FAE493A3F8E493A3C8C582C8CAC583CAED
:10093100F0A3C8C582C8CAC583CADFE9DEE780BEA5
:010E340000BD
:10062400EF8DF0A4A8F0CF8CF0A428CE8DF0A42EEA
:02063400FE22A4
:0F0DD600EFC394304007EF943A50028001C322DC
:100D9200EFC394094005EF940E4003BF2003D380B4
:030DA20001C32268
:00000001FF
