:02000000072BCC
:06000600000000000800EC
:10000C00073084000008000883120313F0007012FC
:06001C00700880000800DE
:10002200073084000008000883120313F000F01167
:06003200700880000800C8
:10003800013083120313B0000030B1008030AE00ED
:10004800AF012E082F040319522803200320032090
:1000580003201120831687110320032083122E0802
:100068002D05F00000302F05F10070087104031908
:1000780040288316071643280620831607120320F4
:10008800032087158312241087194E28241C4D2815
:100098004E284828AF0CAE0CAF132528B001B1018B
:1000A800032003201120831687110320032007163D
:1000B80003200320032003208715831224108719A7
:1000C8006928241C682869286328B001B101032025
:1000D8000320071E70283014032003200320032068
:1000E80003200320032003200320032003200320F0
:1000F80003200320032003201120831687110620E4
:0C0108008316071283123008F000080074
:1001140083120313AF01B0018030B1000030B2008C
:10012400310832040319B528032003208316071667
:10013400032003208715831224108719A528241C63
:10014400A428A5289F28071EAB283108AF0432082D
:10015400B004032003201120831687118312B20CEC
:10016400B10CB213922883160716032003208312BE
:100174002D082E040319C12806208316071283169E
:10018400032003208715831224108719CD28241CEB
:10019400CC28CD28C72803200320112083168711DB
:1001A4000320032006208316071283122F08F00071
:0201B400080041
:1001B60006208316071203200320871583122410B6
:1001C6008719E928241CE828E928E32803200320C6
:1001D6000320032003200320032003208316071691
:0601E600032003200800C5
:1001EC00831603130716032003208715032003200F
:1001FC000620831607120320032011208316871173
:02020C000800E8
:10020E0083120313AC01F6200730F20083122A0882
:10021E00F0002B08F100720803191A29F10CF00CEA
:10022E00F113FF3E13290E30F00570082904AD00BE
:10023E001C20FF302A05AD001C20F6200130831251
:10024E002904AD001C20AD01AE018A207008AC005F
:0A025E00DB2083122C08F0000800DA
:10026800831203132508A300D030A900AA01AB010B
:1002780007217008A5001A30FC00F830FD00FD0BBE
:0A0288004329FC0B43290000080085
:1002920083120313FB01FA01F9018030F800F10C1B
:1002A200F00C031C5D297408F90775080318750F13
:1002B200FA070318FB0A0310F01F65297408FA07EE
:1002C20075080318750FFB07FB0CFA0CF90CF80CF8
:1002D200031C50297B08F3007A08F2007908F10028
:0602E2007808F00008009E
:0E02E8008312031321088A00200882000800F8
:1002F60083120313A2010730220203185B2A34215A
:10030600A6010A3026020318592A05148510A701EA
:10031600073027020318152A0130A8002708F10024
:100326002808F000710803199C29F00D7010FF3E93
:1003360096297008A800700986002308F000F00CC2
:10034600F013F00CF013F00CF013F00CF013003077
:10035600F0057008031DB4290A302302031CB429D2
:10036600D52922082707F000F1010318F10A723097
:10037600F00703300318013EF1077008A00071086A
:10038600A10074218A110A12F00070098800033056
:10039600FC009730FD00FD0BCE29FC0BCE2900009A
:1003A6000000132A2308F000F00CF013F00CF013F1
:1003B600F00CF013F00CF0130F30F0050130F002E2
:1003C600F101031CF1030730F4000030F500492168
:1003D60070082C3EF20003300318013E7107F3004B
:1003E60022082707F000F1010318F10A7208F00746
:1003F60073080318013EF1077008A0007108A100F8
:1004060074218A110A12F000700988000330FC007A
:100416009730FD00FD0B0D2AFC0B0D2A0000000095
:10042600A70A8B2905108514A70107302702031890
:10043600572A0130A8002708F1002808F0007108A3
:100446000319292AF00D7010FF3E232A7008A80010
:10045600700986000F302505F0000030F1000730E6
:10046600F4000030F50049212C30F0070330031862
:10047600013EF1072708F0070318F10A7008A000EB
:100486007108A10074218A110A12F000700988000F
:100496000330FC009730FD00FD0B4F2AFC0B4F2A62
:1004A60000000000A70A182AA60A8429A20A7E29A3
:0204B60008003C
:1004B80074218A110A128000840AA00A0319A10A69
:0804C800F003031D5C2A08008B
:1004D00083120313A6010A3026020318FE2A05140C
:1004E0008510A701073027020318BA2A0130A80097
:1004F0002708F1002808F00071080319832AF00D7D
:100500007010FF3E7D2A7008A8007009860025083B
:10051000F000F00CF013F00CF013F00CF013F00CF2
:10052000F0130F30F0050030F1000730F400003018
:10053000F50049212C30F00703300318013EF10784
:100540002708F0070318F10A7008A0007108A1003D
:1005500074218A110A12F000700988000330FC002F
:100560009730FD00FD0BB22AFC0BB22A0000000000
:10057000A70A722A05108514A7010730270203185D
:10058000FC2A0130A8002708F1002808F0007108B3
:100590000319CE2AF00D7010FF3EC82A7008A8007B
:1005A000700986000F302505F0000030F10007309B
:1005B000F4000030F50049212C30F0070330031817
:1005C000013EF1072708F0070318F10A7008A000A0
:1005D0007108A10074218A110A12F00070098800C4
:1005E0000330FC009730FD00FD0BF42AFC0BF42ACD
:0E05F00000000000A70ABD2AA60A6B2A080018
:1005FE000630831603139F008601880185010800CB
:10060E00FF223421682234212308F000F00CF0136D
:10061E00F00CF013F00CF013F00CF0130F3070051B
:10062E00F2002508F000F00CF013F00CF013F00CB3
:10063E00F013F00CF0130F307005F1007208710614
:0A064E0003192A2B7B21092B2B2B0B
:1006580070348834C834A8349834883470342034DA
:1006680030342034203420342034F8347034883442
:100678008034403420341034F834F8344034203492
:1006880040348034883470344034603450344834D2
:10069800F83440344034F8340834783480348034C2
:1006A80088347034603410340834783488348834AA
:1006B8007034F8348034403420341034103410341A
:1006C80070348834883470348834883470347034A2
:0C06D80088348834F034803440343034EE
:1006E400F834083478348034803488347034703486
:0C06F4008834C834A8349834883470343A
:02400E00FA3B7B
:00000001FF
