:02000000502886
:0C00060007308312DD00DD0B0628080027
:10001200C33083129F0540309F05F03083169F0442
:1000220083129F172608D000D00D5010D00D50100B
:1000320050089F041F1403209F149F1C22280000B5
:100042001E281F101E08D100D00183161E08D004DE
:060052000030D10408009B
:0C005800831207108710071187110800A1
:1000640083120512871607148710071587110330AA
:10007400DB008A30DC005530DD00DD0B3F28DC0B73
:100084003F28DB0B3F2800000000871205160800FC
:0C0094008312071087140715871108005D
:1000A0000130831685008701013091008312990188
:1000B0008712A60109205008A0005108A10051088C
:1000C000013C031D652850082C3C0318742803309C
:1000D0002102031D6D28E8302002031874288312C2
:1000E000071232204A20EB2801302102031D7A2812
:1000F0002C3020020318E8282C2007161A30DB00C9
:100100005E30DC006E30DD00DD0B8428DC0B8428E3
:10011000DB0B84280000A401A50100302502031D8B
:100120009328143024020318BA2883128716051660
:100130000630DB001330DC00AD30DD00DD0B9E2827
:10014000DC0B9E28DB0B9E280000000087120512A6
:100150000330DB008A30DC005530DD00DD0BAE28DB
:10016000DC0BAE28DB0BAE2800000000A40A03194C
:10017000A50A8D28A401A50104302502031DC2286B
:10018000003024020318E728831205160630DB002E
:100190001330DC00AD30DD00DD0BCC28DC0BCC28CF
:1001A000DB0BCC280000000005120330DB008A3096
:1001B000DC005530DD00DD0BDB28DC0BDB28DB0B46
:1001C000DB2800000000A40A0319A50ABC28EB28BC
:0A01D000831207124A205928EC2878
:02400E009431EB
:00000001FF
