:020000004F2887
:0C00060007308312DD00DD0B0628080027
:10001200C33083129F0540309F05F03083169F0442
:1000220083129F172608D000D00D5010D00D50100B
:1000320050089F041F1403209F149F1C22280000B5
:100042001E281F101E08D100D00183161E08D004DE
:060052000030D10408009B
:0C005800831207108710071187110800A1
:1000640083120512871607148710071587110230AB
:10007400DB000430DC00BA30DD00DD0B3F28DC0B94
:0E0084003F28DB0B3F280000871205160800FE
:0C0092008312071087140715871108005F
:10009E00013083168500870101309100831299018A
:1000AE008712A60109205008A0005108A10051088E
:1000BE00003C031D64285008C83C03187B280330FD
:1000CE002102031D6C28B630200203187B288312F0
:1000DE000712322049200730DC007D30DD00DD0BB9
:1000EE007628DC0B7628F22800302102031D8128A9
:1000FE00C83020020318EF282C2007161A30DB0018
:10010E005E30DC006E30DD00DD0B8B28DC0B8B28C7
:10011E00DB0B8B280000A401A50100302502031D76
:10012E009A28143024020318C12883128716051644
:10013E000630DB001330DC00AD30DD00DD0BA52812
:10014E00DC0BA528DB0BA52800000000871205128A
:10015E000330DB008A30DC005530DD00DD0BB528C6
:10016E00DC0BB528DB0BB52800000000A40A031930
:10017E00A50A9428A401A50104302502031DC9284F
:10018E00003024020318EE28831205160630DB0019
:10019E001330DC00AD30DD00DD0BD328DC0BD328B3
:1001AE00DB0BD3280000000005120330DB008A3081
:1001BE00DC005530DD00DD0BE228DC0BE228DB0B2A
:1001CE00E22800000000A40A0319A50AC328F22899
:0A01DE008312071249205828F32865
:02400E009431EB
:00000001FF
