:02000000912944
:1000060083120313F101071AF10AF001871AF00AA5
:100016007008F104F001071BF00A7008F104F00102
:0A002600871BF00A7108F0040800BF
:1000300083120313871587191F2807112028071516
:1000400007192428871025288714871829280710BE
:060050002A280714080035
:10005600831203138713871B3228071333280717C6
:10006600071B3728871238288716871A3C28071255
:060076003D2807160800FA
:10007C002B2018208601850103207008031986297E
:10008C000714871187194C2807114D2807150719D4
:10009C0051288710522887140320700803199628BA
:1000AC00071E592805140230FB000430FC00BA303E
:1000BC00FD00FD0B5F28FC0B5F28FB0B5F2800008D
:1000CC00871E692885140230FB000430FC00BA300E
:1000DC00FD00FD0B6F28FC0B6F28FB0B6F2800003D
:1000EC00071F792805150230FB000430FC00BA30DC
:1000FC00FD00FD0B7F28FC0B7F28FB0B7F280000ED
:10010C00871F892885150230FB000430FC00BA30AB
:10011C00FD00FD0B8F28FC0B8F28FB0B8F2800009C
:10012C008714871187199C2807119D280715071913
:10013C00A1280710A2280714032070080319E62829
:10014C00071EA92805160230FB000430FC00BA304B
:10015C00FD00FD0BAF28FC0BAF28FB0BAF280000FC
:10016C00871EB92885160230FB000430FC00BA301B
:10017C00FD00FD0BBF28FC0BBF28FB0BBF280000AC
:10018C00071FC92805170230FB000430FC00BA30E9
:10019C00FD00FD0BCF28FC0BCF28FB0BCF2800005C
:1001AC00871FD92885170230FB000430FC00BA30B9
:1001BC00FD00FD0BDF28FC0BDF28FB0BDF2800000C
:1001CC00071587118719EC288710ED2887148718D5
:1001DC00F1280710F2280714032070080319362998
:1001EC00071EF92806140230FB000430FC00BA305C
:1001FC00FD00FD0BFF28FC0BFF28FB0BFF2800006C
:10020C00871E092986140230FB000430FC00BA302A
:10021C00FD00FD0B0F29FC0B0F29FB0B0F29000018
:10022C00071F192906150230FB000430FC00BA30F8
:10023C00FD00FD0B1F29FC0B1F29FB0B1F290000C8
:10024C00871F292986150230FB000430FC00BA30C8
:10025C00FD00FD0B2F29FC0B2F29FB0B2F29000078
:10026C008715871087183C2907113D290715071991
:10027C004129071042290714032070080319862905
:10028C00071E492906160230FB000430FC00BA3068
:10029C00FD00FD0B4F29FC0B4F29FB0B4F290000D8
:1002AC00871E592986160230FB000430FC00BA3038
:1002BC00FD00FD0B5F29FC0B5F29FB0B5F29000088
:1002CC00071F692906170230FB000430FC00BA3006
:1002DC00FD00FD0B6F29FC0B6F29FB0B6F29000038
:1002EC00871F792986170230FB000430FC00BA30D6
:1002FC00FD00FD0B7F29FC0B7F29FB0B7F290000E8
:02030C000800E7
:10030E008316031385018601F030870003178801D9
:04031E008901080049
:0C03220087213E20850186019229962942
:04400E00F43F000774
:00000001FF
