:02000000C92B0A
:020006000800F0
:1000080070082000A2007108A100803164008B1ED6
:1000180010280B1D1028A6232208F0002108F10043
:020028000900CD
:10002A007408F8027508031C750FF9027608031C98
:10003A00760FFA027708031C770FFB02F30D0730DD
:10004A00FC00730DF80DF90DFA0DFB0D7408731C05
:10005A003C28F8027508031C750FF9027608031C80
:10006A00760FFA027708031C770FFB024928F80774
:10007A0075080318750FF90776080318760FFA073B
:10008A0077080318770FFB07F30DFC0B2628720D70
:10009A00F80DF90DFA0DFB0D7408731C6228F802AD
:1000AA007508031C750FF9027608031C760FFA020D
:1000BA007708031C770FFB026F28F80775080318E7
:1000CA00750FF90776080318760FFA0777080318E9
:1000DA00770FFB07F20D0730FC00720DF80DF90DD2
:1000EA00FA0DFB0D7408721C8828F8027508031CA7
:1000FA00750FF9027608031C760FFA027708031CBB
:10010A00770FFB029528F80775080318750FF9078A
:10011A0076080318760FFA0777080318770FFB0794
:10012A00F20DFC0B7228710DF80DF90DFA0DFB0D8D
:10013A007408721CAE28F8027508031C750FF902C0
:10014A007608031C760FFA027708031C770FFB0266
:10015A00BB28F80775080318750FF90776080318FE
:10016A00760FFA0777080318770FFB07F10D0730A8
:10017A00FC00710DF80DF90DFA0DFB0D7408711CD8
:10018A00D428F8027508031C750FF9027608031CB7
:10019A00760FFA027708031C770FFB02E128F807AB
:1001AA0075080318750FF90776080318760FFA070A
:1001BA0077080318770FFB07F10DFC0BBE28700DAB
:1001CA00F80DF90DFA0DFB0D7408711CFA28F802E6
:1001DA007508031C750FF9027608031C760FFA02DC
:1001EA007708031C770FFB020729F807750803181D
:1001FA00750FF90776080318760FFA0777080318B8
:10020A00770FFB07F00D0730FC00700DF80DF90DA4
:10021A00FA0DFB0D7408701C2029F8027508031CDE
:10022A00750FF9027608031C760FFA027708031C89
:10023A00770FFB022D29F80775080318750FF907C0
:10024A0076080318760FFA0777080318770FFB0763
:10025A00F00DFC0B0A29701840297408F807750874
:10026A000318750FF90776080318760FFA07770847
:08027A000318770FFB070800D1
:10028200FB09FA09F909F809F80A0319F90A031925
:08029200FA0A0319FB0A080037
:10029A0020002230FC00F801F901FA01FB01FC03FD
:1002AA00031982290310FB0CFA0CF90CF80CF30C55
:1002BA00F20CF10CF00C031C5429FC0303197429E9
:1002CA007408F80775080318750FF90776080318F4
:1002DA00760FFA0777080318770FFB07582974086F
:1002EA00F80775080318750FF90776080318760FCB
:0C02FA00FA0777080318770FFB070800CD
:0E0306004030F0001F30F100F201F30108005A
:100314007408003A031DA3297508003A031DA32994
:100324007608003A031DA3297708003A031DA32980
:10033400FF30F000FF30F100FF30F2007F30F300B7
:100344003B2A2000FC01F71BFC0AFD01FB01FA011A
:10035400F901F80173087204710470040319362A50
:1003640073087706A000A01BFD09F71FC429F40930
:10037400F509F609F709F40A0319F50A0319F60A47
:100384000319F70AF31FD129F009F109F209F30956
:10039400F00A0319F10A0319F20A0319F30A73089C
:1003A4007704A000A01BF2291520FC1B0F2AFD1FB7
:1003B400362AF009F109F209F309F00A0319F10ADE
:1003C4000319F20A0319F30AF809F909FA09FB09EE
:1003D400F80A0319F90A0319FA0A0319FB0A362A57
:1003E400F71F092AF31B032A7308FB007208FA009B
:1003F4007108F9007008F800F301F201F101F0014D
:10040400D929F301F201F101F001F00A0034F309F2
:10041400F209F109F009FC17D629F80A0319F90AB7
:100424000319FA0A0319FB0A74087802031DD9296F
:1004340075087902031DD92976087A02031DD92982
:1004440077087B02031DD929FB01FA01F901F801A0
:10045400F00A0319F10A0319F20A0319F30AF31F44
:10046400D929A0012016FF34A0017C1C3A2A41217D
:04047400003E08003E
:1004780020003308AA003408AB003508F00001302A
:10048800F200700803194B2AF235FF3E462A72081B
:10049800AC007209B0003608F1000130F0007108B4
:1004A8000319592AF035FF3E542A7008B100F009A3
:1004B8007008B2008030330784000030343D850076
:1004C8007208800470088005AF013B0803196D2A83
:1004D800AF09803084022F08003A0319762A3208BF
:1004E8008005782A310880048321E830F40003303D
:1004F800F500F601F7014D217008C6007108C70024
:100508007208C8007308C9004608BC004708BD0047
:100518004808BE004908BF003708F0003808F10055
:100528003908F2003A08F300F035F10DF20DF30D39
:10053800F035F10DF20DF30D0A30F400F501F60176
:10054800F7014D217008C0007108C1007208C2008F
:100558007308C3007008F4007108F5007208F6000B
:100568007308F7004608F0004708F1004808F20051
:100578004908F3008A217008C4007108C500710891
:10058800F400F501740875040319CD2A0230F0004F
:100598001E2B4408AD004008F4004108F50042084D
:1005A800F6004308F7003C08F0003D08F1003E085B
:1005B800F2003F08F3008A217808F0007908F1007A
:1005C8007A08F2007B08F3007008BC007108BD00CF
:1005D8007208BE007308BF004008F5004108F60025
:1005E8004208F7004308F800F837F70CF60CF50C4A
:1005F80080307806F400803073067402031D0E2BD9
:1006080072087702031D0E2B71087602031D0E2B4C
:10061800700875020318112BAD0A2D08F100F13688
:100628007108AE000730710203181D2B0130F0006D
:060638001E2BF00108007A
:0A063E0020008E120E128E1108002B
:10064800173021009500F830200095000B118B160B
:02065800080098
:10065A002000F8010830FC00700DF80D7408F8024B
:10066A000318392BF8070310F00DFC0B312B080087
:10067A0020000E1D4C2B250AF0007008A500250845
:10068A00143C03184B2B26141430A5004F2BA5013C
:10069A00FE30A6058E1C5D2B270AF0007008A70005
:1006AA002708143C03185C2BA6141430A700602BEF
:1006BA00A701FD30A6050E1C6E2B240AF000700857
:1006CA00A4002408143C03186D2B26151430A4002A
:0A06DA00712BA401FB30A6050800F7
:1006E40072302100990020008C0122008C0123002B
:1006F4008C0121008C0120008E0123008E01220038
:100704008E01073021008E001F231730210097002F
:1007140024230C30B3000030B4000530B50004309D
:10072400B6008030B7002530B800B901BA01BB016A
:060734003C228B170800B7
:10073A0012001E00F003031D9D2BF103031D9D2BC8
:02074A000800A5
:10074C00F830200095000B1101302807F000003024
:10075C00293DF1007008A8007108A9002908043C83
:10076C00031DBA2B2808173C0318C82BA801A90194
:10077C00230AF0007008A30023083C3C0318C82B84
:06078C000130A30008008B
:10079200EC23722301302305F1007108003A031D96
:1007A200D32B3D231E30F4002308F0002D237808BC
:1007B200F0007008003A031DDF2B0320CB2BE02B47
:1007D800E4308400833085000730F0000130F100F8
:0C07E80023308600003087009D230800AD
:0207C8000134FA
:0207CA000034F9
:0207CC000034F7
:0207CE000034F5
:0207D0000034F3
:0407D20000340034BB
:020000040001F9
:04000E00E73FFF1FAA
:00000001FF
